{
  "contractName": "ProjectContract",
  "abi": [
    {
      "constant": true,
      "inputs": [],
      "name": "owner",
      "outputs": [
        {
          "name": "",
          "type": "address"
        }
      ],
      "payable": false,
      "stateMutability": "view",
      "type": "function"
    },
    {
      "constant": false,
      "inputs": [
        {
          "name": "newOwner",
          "type": "address"
        }
      ],
      "name": "transferOwnership",
      "outputs": [],
      "payable": false,
      "stateMutability": "nonpayable",
      "type": "function"
    },
    {
      "inputs": [
        {
          "name": "_owner",
          "type": "address"
        },
        {
          "name": "_projectTitle",
          "type": "string"
        },
        {
          "name": "_projectDescription",
          "type": "string"
        },
        {
          "name": "_projectHub",
          "type": "address"
        }
      ],
      "payable": false,
      "stateMutability": "nonpayable",
      "type": "constructor"
    },
    {
      "anonymous": false,
      "inputs": [
        {
          "indexed": true,
          "name": "previousOwner",
          "type": "address"
        },
        {
          "indexed": true,
          "name": "newOwner",
          "type": "address"
        }
      ],
      "name": "OwnershipTransferred",
      "type": "event"
    },
    {
      "constant": false,
      "inputs": [
        {
          "name": "_optionTitle",
          "type": "string"
        },
        {
          "name": "_optionDescription",
          "type": "string"
        },
        {
          "name": "_optionAmountEther",
          "type": "uint256"
        },
        {
          "name": "_optionAvailability",
          "type": "int256"
        }
      ],
      "name": "addBackingOption",
      "outputs": [],
      "payable": false,
      "stateMutability": "nonpayable",
      "type": "function"
    },
    {
      "constant": true,
      "inputs": [
        {
          "name": "index",
          "type": "uint256"
        }
      ],
      "name": "getBackingOption",
      "outputs": [
        {
          "name": "",
          "type": "string"
        },
        {
          "name": "",
          "type": "string"
        },
        {
          "name": "",
          "type": "uint256"
        },
        {
          "name": "",
          "type": "int256"
        }
      ],
      "payable": false,
      "stateMutability": "view",
      "type": "function"
    },
    {
      "constant": true,
      "inputs": [],
      "name": "getBackingOptionsCount",
      "outputs": [
        {
          "name": "",
          "type": "uint256"
        }
      ],
      "payable": false,
      "stateMutability": "view",
      "type": "function"
    },
    {
      "constant": false,
      "inputs": [
        {
          "name": "backingOptionID",
          "type": "int256"
        }
      ],
      "name": "addInvestor",
      "outputs": [
        {
          "name": "",
          "type": "bool"
        }
      ],
      "payable": true,
      "stateMutability": "payable",
      "type": "function"
    },
    {
      "constant": true,
      "inputs": [
        {
          "name": "_requestTitle",
          "type": "string"
        },
        {
          "name": "_requestDescription",
          "type": "string"
        },
        {
          "name": "_valideUntil",
          "type": "uint256"
        },
        {
          "name": "_amount",
          "type": "uint256"
        }
      ],
      "name": "getInvestorCount",
      "outputs": [
        {
          "name": "",
          "type": "uint256"
        }
      ],
      "payable": false,
      "stateMutability": "view",
      "type": "function"
    },
    {
      "constant": false,
      "inputs": [
        {
          "name": "_requestTitle",
          "type": "string"
        },
        {
          "name": "_requestDescription",
          "type": "string"
        },
        {
          "name": "_valideUntil",
          "type": "uint256"
        },
        {
          "name": "_amount",
          "type": "uint256"
        }
      ],
      "name": "addRequest",
      "outputs": [
        {
          "name": "",
          "type": "bool"
        }
      ],
      "payable": false,
      "stateMutability": "nonpayable",
      "type": "function"
    },
    {
      "constant": false,
      "inputs": [
        {
          "name": "isAccepted",
          "type": "bool"
        }
      ],
      "name": "voteForCurrentRequest",
      "outputs": [
        {
          "name": "",
          "type": "int256"
        },
        {
          "name": "",
          "type": "int256"
        },
        {
          "name": "",
          "type": "uint256"
        }
      ],
      "payable": false,
      "stateMutability": "nonpayable",
      "type": "function"
    },
    {
      "constant": true,
      "inputs": [],
      "name": "getCurrentRequest",
      "outputs": [
        {
          "name": "requestTitle",
          "type": "string"
        },
        {
          "name": "requestDescription",
          "type": "string"
        },
        {
          "name": "valideUntil",
          "type": "uint256"
        },
        {
          "name": "amount",
          "type": "uint256"
        },
        {
          "name": "numberAcceptedVotes",
          "type": "int256"
        },
        {
          "name": "numberRejectedVotes",
          "type": "int256"
        },
        {
          "name": "wasPayed",
          "type": "bool"
        }
      ],
      "payable": false,
      "stateMutability": "view",
      "type": "function"
    },
    {
      "constant": false,
      "inputs": [],
      "name": "requestPayout",
      "outputs": [
        {
          "name": "",
          "type": "bool"
        }
      ],
      "payable": false,
      "stateMutability": "nonpayable",
      "type": "function"
    }
  ],
  "bytecode": "0x608060405260016003553480156200001657600080fd5b5060405162001ac938038062001ac9833981018060405260808110156200003c57600080fd5b810190808051906020019092919080516401000000008111156200005f57600080fd5b828101905060208101848111156200007657600080fd5b81518560018202830111640100000000821117156200009457600080fd5b50509291906020018051640100000000811115620000b157600080fd5b82810190506020810184811115620000c857600080fd5b8151856001820283011164010000000082111715620000e657600080fd5b505092919060200180519060200190929190505050336000806101000a81548173ffffffffffffffffffffffffffffffffffffffff021916908373ffffffffffffffffffffffffffffffffffffffff160217905550836000806101000a81548173ffffffffffffffffffffffffffffffffffffffff021916908373ffffffffffffffffffffffffffffffffffffffff160217905550826001908051906020019062000193929190620001b7565b508160029080519060200190620001ac929190620001b7565b505050505062000266565b828054600181600116156101000203166002900490600052602060002090601f016020900481019282601f10620001fa57805160ff19168380011785556200022b565b828001600101855582156200022b579182015b828111156200022a5782518255916020019190600101906200020d565b5b5090506200023a91906200023e565b5090565b6200026391905b808211156200025f57600081600090555060010162000245565b5090565b90565b61185380620002766000396000f3fe6080604052600436106100af576000357c0100000000000000000000000000000000000000000000000000000000900463ffffffff16806342d8efa1146100b45780635e8f8993146100fa57806365058f4c146101255780637f0fcd61146101545780638cea183b146102c75780638da5cb5b146103ea578063960524e314610441578063bed50bd31461046c578063d9ad9a1a146105f7578063ec912d7b14610725578063f2fde38b14610762575b600080fd5b6100e0600480360360208110156100ca57600080fd5b81019080803590602001909291905050506107b3565b604051808215151515815260200191505060405180910390f35b34801561010657600080fd5b5061010f610c1a565b6040518082815260200191505060405180910390f35b34801561013157600080fd5b5061013a610c27565b604051808215151515815260200191505060405180910390f35b34801561016057600080fd5b506102c56004803603608081101561017757600080fd5b810190808035906020019064010000000081111561019457600080fd5b8201836020820111156101a657600080fd5b803590602001918460018302840111640100000000831117156101c857600080fd5b91908080601f016020809104026020016040519081016040528093929190818152602001838380828437600081840152601f19601f8201169050808301925050505050505091929192908035906020019064010000000081111561022b57600080fd5b82018360208201111561023d57600080fd5b8035906020019184600183028401116401000000008311171561025f57600080fd5b91908080601f016020809104026020016040519081016040528093929190818152602001838380828437600081840152601f19601f8201169050808301925050505050505091929192908035906020019092919080359060200190929190505050610d3e565b005b3480156102d357600080fd5b506102dc610e6f565b6040518080602001806020018881526020018781526020018681526020018581526020018415151515815260200183810383528a818151815260200191508051906020019080838360005b83811015610342578082015181840152602081019050610327565b50505050905090810190601f16801561036f5780820380516001836020036101000a031916815260200191505b50838103825289818151815260200191508051906020019080838360005b838110156103a857808201518184015260208101905061038d565b50505050905090810190601f1680156103d55780820380516001836020036101000a031916815260200191505b50995050505050505050505060405180910390f35b3480156103f657600080fd5b506103ff610ffd565b604051808273ffffffffffffffffffffffffffffffffffffffff1673ffffffffffffffffffffffffffffffffffffffff16815260200191505060405180910390f35b34801561044d57600080fd5b50610456611022565b6040518082815260200191505060405180910390f35b34801561047857600080fd5b506105dd6004803603608081101561048f57600080fd5b81019080803590602001906401000000008111156104ac57600080fd5b8201836020820111156104be57600080fd5b803590602001918460018302840111640100000000831117156104e057600080fd5b91908080601f016020809104026020016040519081016040528093929190818152602001838380828437600081840152601f19601f8201169050808301925050505050505091929192908035906020019064010000000081111561054357600080fd5b82018360208201111561055557600080fd5b8035906020019184600183028401116401000000008311171561057757600080fd5b91908080601f016020809104026020016040519081016040528093929190818152602001838380828437600081840152601f19601f820116905080830192505050505050509192919290803590602001909291908035906020019092919050505061102f565b604051808215151515815260200191505060405180910390f35b34801561060357600080fd5b506106306004803603602081101561061a57600080fd5b8101908080359060200190929190505050611248565b604051808060200180602001858152602001848152602001838103835287818151815260200191508051906020019080838360005b83811015610680578082015181840152602081019050610665565b50505050905090810190601f1680156106ad5780820380516001836020036101000a031916815260200191505b50838103825286818151815260200191508051906020019080838360005b838110156106e65780820151818401526020810190506106cb565b50505050905090810190601f1680156107135780820380516001836020036101000a031916815260200191505b50965050505050505060405180910390f35b34801561073157600080fd5b506107606004803603602081101561074857600080fd5b81019080803515159060200190929190505050611462565b005b34801561076e57600080fd5b506107b16004803603602081101561078557600080fd5b81019080803573ffffffffffffffffffffffffffffffffffffffff1690602001909291905050506115fd565b005b60008060008090505b600b805490508110156108065783600b828154811015156107d957fe5b90600052602060002090600502016004015414156107f957809150610806565b80806001019150506107bc565b506000600b8281548110151561081857fe5b906000526020600020906005020160040154141515156108a0576040517f08c379a000000000000000000000000000000000000000000000000000000000815260040180806020018281038252601b8152602001807f4261636b696e674f7074696f6e20776173206e6f7420666f756e64000000000081525060200191505060405180910390fd5b600b818154811015156108af57fe5b9060005260206000209060050201600201543414151561095d576040517f08c379a000000000000000000000000000000000000000000000000000000000815260040180806020018281038252602f8152602001807f53656e6420457468657220616d6f756e74206973206e6f7420657175616c207481526020017f6f206261636b696e67207072696365000000000000000000000000000000000081525060400191505060405180910390fd5b6000600b8281548110151561096e57fe5b906000526020600020906005020160030154131515610a1b576040517f08c379a00000000000000000000000000000000000000000000000000000000081526004018080602001828103825260258152602001807f43686f6f73656e204f7074696f6e206973206e6f206c6f6e676572206176616981526020017f6c61626c6500000000000000000000000000000000000000000000000000000081525060400191505060405180910390fd5b6000600d60003373ffffffffffffffffffffffffffffffffffffffff1673ffffffffffffffffffffffffffffffffffffffff16815260200190815260200160002060030154141515610ad5576040517f08c379a000000000000000000000000000000000000000000000000000000000815260040180806020018281038252601d8152602001807f496e766573746f722068617320616c726561647920696e76657374656400000081525060200191505060405180910390fd5b6080604051908101604052803373ffffffffffffffffffffffffffffffffffffffff168152602001848152602001600280811115610b0f57fe5b81526020016001815250600d60003373ffffffffffffffffffffffffffffffffffffffff1673ffffffffffffffffffffffffffffffffffffffff16815260200190815260200160002060008201518160000160006101000a81548173ffffffffffffffffffffffffffffffffffffffff021916908373ffffffffffffffffffffffffffffffffffffffff1602179055506020820151816001015560408201518160020160006101000a81548160ff02191690836002811115610bcd57fe5b021790555060608201518160030155905050600b81815481101515610bee57fe5b906000526020600020906005020160030160008154809291906001900391905055506001915050919050565b6000600b80549050905090565b60008060009054906101000a900473ffffffffffffffffffffffffffffffffffffffff1673ffffffffffffffffffffffffffffffffffffffff163373ffffffffffffffffffffffffffffffffffffffff16141515610c8457600080fd5b600c8054905060026004800154811515610c9a57fe5b05131515610cab5760009050610d3b565b600460060160009054906101000a900460ff1615610ccc5760009050610d3b565b3373ffffffffffffffffffffffffffffffffffffffff166108fc6004600301549081150290604051600060405180830381858888f19350505050158015610d17573d6000803e3d6000fd5b506001600460060160006101000a81548160ff021916908315150217905550600190505b90565b6000809054906101000a900473ffffffffffffffffffffffffffffffffffffffff1673ffffffffffffffffffffffffffffffffffffffff163373ffffffffffffffffffffffffffffffffffffffff16141515610d9957600080fd5b610da1611752565b60a0604051908101604052808681526020018581526020018481526020018381526020016003548152509050600b81908060018154018082558091505090600182039060005260206000209060050201600090919290919091506000820151816000019080519060200190610e17929190611782565b506020820151816001019080519060200190610e34929190611782565b506040820151816002015560608201518160030155608082015181600401555050506003600081548092919060010191905055505050505050565b6060806000806000806000600460000160046001016004600201546004600301546004800154600460050154600460060160009054906101000a900460ff16868054600181600116156101000203166002900480601f016020809104026020016040519081016040528092919081815260200182805460018160011615610100020316600290048015610f435780601f10610f1857610100808354040283529160200191610f43565b820191906000526020600020905b815481529060010190602001808311610f2657829003601f168201915b50505050509650858054600181600116156101000203166002900480601f016020809104026020016040519081016040528092919081815260200182805460018160011615610100020316600290048015610fdf5780601f10610fb457610100808354040283529160200191610fdf565b820191906000526020600020905b815481529060010190602001808311610fc257829003601f168201915b50505050509550965096509650965096509650965090919293949596565b6000809054906101000a900473ffffffffffffffffffffffffffffffffffffffff1681565b6000600c80549050905090565b60008060009054906101000a900473ffffffffffffffffffffffffffffffffffffffff1673ffffffffffffffffffffffffffffffffffffffff163373ffffffffffffffffffffffffffffffffffffffff1614151561108c57600080fd5b6000600460020154141580156110a6575042600460020154105b156110b45760009050611240565b6110bc610c27565b5060e06040519081016040528086815260200185815260200184815260200183815260200160008152602001600081526020016000151581525060046000820151816000019080519060200190611114929190611782565b506020820151816001019080519060200190611131929190611782565b5060408201518160020155606082015181600301556080820151816004015560a0820151816005015560c08201518160060160006101000a81548160ff02191690831515021790555090505060008090505b600c8054905081101561123a576002600d6000600c848154811015156111a557fe5b9060005260206000200160009054906101000a900473ffffffffffffffffffffffffffffffffffffffff1673ffffffffffffffffffffffffffffffffffffffff1673ffffffffffffffffffffffffffffffffffffffff16815260200190815260200160002060020160006101000a81548160ff0219169083600281111561122857fe5b02179055508080600101915050611183565b50600190505b949350505050565b606080600080600b8054905085101515611298576000806020604051908101604052806000815250919060206040519081016040528060008152509190819150809050935093509350935061145b565b600b858154811015156112a757fe5b9060005260206000209060050201600001600b868154811015156112c757fe5b9060005260206000209060050201600101600b878154811015156112e757fe5b906000526020600020906005020160020154600b8881548110151561130857fe5b906000526020600020906005020160030154838054600181600116156101000203166002900480601f0160208091040260200160405190810160405280929190818152602001828054600181600116156101000203166002900480156113af5780601f10611384576101008083540402835291602001916113af565b820191906000526020600020905b81548152906001019060200180831161139257829003601f168201915b50505050509350828054600181600116156101000203166002900480601f01602080910402602001604051908101604052809291908181526020018280546001816001161561010002031660029004801561144b5780601f106114205761010080835404028352916020019161144b565b820191906000526020600020905b81548152906001019060200180831161142e57829003601f168201915b5050505050925093509350935093505b9193509193565b6000600d60003373ffffffffffffffffffffffffffffffffffffffff1673ffffffffffffffffffffffffffffffffffffffff1681526020019081526020016000206003015414156114b2576115fa565b6002808111156114be57fe5b600d60003373ffffffffffffffffffffffffffffffffffffffff1673ffffffffffffffffffffffffffffffffffffffff16815260200190815260200160002060020160009054906101000a900460ff16600281111561151957fe5b141515611525576115fa565b8015611594576000600d60003373ffffffffffffffffffffffffffffffffffffffff1673ffffffffffffffffffffffffffffffffffffffff16815260200190815260200160002060020160006101000a81548160ff0219169083600281111561158a57fe5b02179055506115f9565b6001600d60003373ffffffffffffffffffffffffffffffffffffffff1673ffffffffffffffffffffffffffffffffffffffff16815260200190815260200160002060020160006101000a81548160ff021916908360028111156115f357fe5b02179055505b5b50565b6000809054906101000a900473ffffffffffffffffffffffffffffffffffffffff1673ffffffffffffffffffffffffffffffffffffffff163373ffffffffffffffffffffffffffffffffffffffff1614151561165857600080fd5b600073ffffffffffffffffffffffffffffffffffffffff168173ffffffffffffffffffffffffffffffffffffffff161415151561169457600080fd5b8073ffffffffffffffffffffffffffffffffffffffff166000809054906101000a900473ffffffffffffffffffffffffffffffffffffffff1673ffffffffffffffffffffffffffffffffffffffff167f8be0079c531659141344cd1fd0a4f28419497f9722a3daafe3b4186f6b6457e060405160405180910390a3806000806101000a81548173ffffffffffffffffffffffffffffffffffffffff021916908373ffffffffffffffffffffffffffffffffffffffff16021790555050565b60a06040519081016040528060608152602001606081526020016000815260200160008152602001600081525090565b828054600181600116156101000203166002900490600052602060002090601f016020900481019282601f106117c357805160ff19168380011785556117f1565b828001600101855582156117f1579182015b828111156117f05782518255916020019190600101906117d5565b5b5090506117fe9190611802565b5090565b61182491905b80821115611820576000816000905550600101611808565b5090565b9056fea165627a7a72305820bf67cc672ce2d48485d032e7704fb8e2841efa880d5b9f237fa77a9f054895040029",
  "source": "pragma solidity ^0.5.0;\n\nimport \"./Ownable.sol\";\nimport \"../../Libs/DateLib.sol\";\nimport \"../../ProjectHubContract/contracts/ProjectHubContract.sol\";\n\ncontract ProjectContract is Ownable{\n\n    string projectTitle;\n    string projectDescription;\n    int backerOptionsID = 1;\n    Request currentRequest;\n    BackingOption[] backingOptions;\n    address[] investorAddresses;\n    mapping(address => Investor) Investors;\n\n\n    struct BackingOption{\n        string optionTitle;\n        string optionDescription;\n        uint optionAmountEther;\n        int optionAvailability;\n        int id;\n    }\n\n    struct Request{\n        string requestTitle;\n        string requestDescription;\n        uint256 valideUntil;\n        uint amount;\n        int numberAcceptedVotes;\n        int numberRejectedVotes;\n        bool wasPayed;\n    }\n\n    struct Investor{\n        address investorAddress;\n        int choosenBackingOptionID;\n        Vote currentVote;\n        int investorExists; //is needed because a mapping contains all possible keys\n    }\n\n    enum Vote{\n        Accepted,\n        Rejected,\n        NoVoteGiven\n    }\n\n    constructor(address _owner, string memory _projectTitle, string memory _projectDescription, ProjectHubContract _projectHub) public\n    {\n        owner = _owner;\n        projectTitle = _projectTitle;\n        projectDescription = _projectDescription;\n    }\n\n    function addBackingOption(string memory _optionTitle, string memory _optionDescription,\n    uint _optionAmountEther, int _optionAvailability) public onlyOwner\n    {\n        BackingOption memory backingOption = BackingOption(_optionTitle, _optionDescription, _optionAmountEther,\n            _optionAvailability, backerOptionsID);\n        backingOptions.push(backingOption);\n        backerOptionsID++;\n    }\n\n    function getBackingOption(uint index) public view returns(string memory, string memory, uint, int)\n    {\n        if(index >= backingOptions.length){\n            return (\"\", \"\", 0, 0);\n        }\n        return (backingOptions[index].optionTitle, backingOptions[index].optionDescription,\n            backingOptions[index].optionAmountEther, backingOptions[index].optionAvailability);\n    }\n\n    function getBackingOptionsCount()public view returns (uint){\n        return backingOptions.length;\n    }\n\n    function addInvestor(int backingOptionID) public payable returns (bool)\n    {\n        uint  optionIndex;\n        for (uint i = 0; i<backingOptions.length; i++){\n            if(backingOptions[i].id == backingOptionID){\n                optionIndex = i;\n                break;\n            }\n        }\n\n        require(backingOptions[optionIndex].id != 0, \"BackingOption was not found\");\n\n        require(msg.value == backingOptions[optionIndex].optionAmountEther, \"Send Ether amount is not equal to backing price\");\n\n        require(backingOptions[optionIndex].optionAvailability > 0, \"Choosen Option is no longer available\");\n\n        require(Investors[msg.sender].investorExists == 0, \"Investor has already invested\");\n\n        Investors[msg.sender] = Investor(msg.sender, backingOptionID, Vote.NoVoteGiven, 1);\n        backingOptions[optionIndex].optionAvailability--;\n        return true;\n    }\n\n    function getInvestorCount() public view returns (uint)\n    {\n        return investorAddresses.length;\n    }\n\n    function addRequest(string memory _requestTitle, string memory _requestDescription,\n    uint256 _valideUntil, uint _amount) public onlyOwner returns (bool)\n    {\n        if(currentRequest.valideUntil != 0 && currentRequest.valideUntil < block.timestamp)\n        {\n            return false;\n        }\n        requestPayout();\n        currentRequest = Request(_requestTitle, _requestDescription, _valideUntil, _amount, 0, 0, false);\n        for(uint i = 0; i<investorAddresses.length; i++){\n            Investors[investorAddresses[i]].currentVote = Vote.NoVoteGiven;\n        }\n        return true;\n    }\n\n    function voteForCurrentRequest(bool isAccepted) public\n    {\n\n        //Addresse ist kein Investor\n        if(Investors[msg.sender].investorExists == 0){\n            return;\n        }\n\n        //Addresse hat bereits abgestimmt\n        if(Investors[msg.sender].currentVote != Vote.NoVoteGiven){\n            return;\n        }\n        if(isAccepted){\n            Investors[msg.sender].currentVote = Vote.Accepted;\n        }\n        else{\n            Investors[msg.sender].currentVote = Vote.Rejected;\n        }\n    }\n\n    function getCurrentRequest() public view returns (string memory requestTitle,\n            string memory requestDescription,\n            uint256 valideUntil,\n            uint amount,\n            int numberAcceptedVotes,\n            int numberRejectedVotes,\n            bool wasPayed\n        )\n    {\n        return (currentRequest.requestTitle,\n            currentRequest.requestDescription,\n            currentRequest.valideUntil,\n            currentRequest.amount,\n            currentRequest.numberAcceptedVotes,\n            currentRequest.numberRejectedVotes,\n            currentRequest.wasPayed\n        );\n    }\n\n    function requestPayout() public onlyOwner returns (bool)\n    {\n        //Mehrheit ist nicht erreicht\n        if(!((currentRequest.numberAcceptedVotes / 2) > int256 (investorAddresses.length))){\n            return false;\n        }\n        //Der Request wurde bereits ausgezahlt\n        if(currentRequest.wasPayed){\n            return false;\n        }\n        msg.sender.transfer(currentRequest.amount);\n        currentRequest.wasPayed = true;\n        return true;\n    }\n}",
  "sourcePath": "/Users/Nils/Documents/Repos/Blockchain/Contracts/ProjectContract/contracts/ProjectContract.sol",
  "compiler": {
    "name": "solc",
    "version": "0.5.0+commit.1d4f565a.Emscripten.clang"
  },
  "schemaVersion": "3.0.9",
  "updatedAt": "2019-05-14T10:25:54.696Z",
  "devdoc": {
    "methods": {
      "transferOwnership(address)": {
        "details": "Allows the current owner to transfer control of the contract to a newOwner.",
        "params": {
          "newOwner": "The address to transfer ownership to."
        }
      }
    }
  },
  "userdoc": {
    "methods": {}
  }
}