{
  "contractName": "ProjectContract",
  "abi": [
    {
      "constant": true,
      "inputs": [],
      "name": "owner",
      "outputs": [
        {
          "name": "",
          "type": "address"
        }
      ],
      "payable": false,
      "stateMutability": "view",
      "type": "function"
    },
    {
      "constant": false,
      "inputs": [
        {
          "name": "newOwner",
          "type": "address"
        }
      ],
      "name": "transferOwnership",
      "outputs": [],
      "payable": false,
      "stateMutability": "nonpayable",
      "type": "function"
    },
    {
      "inputs": [
        {
          "name": "_owner",
          "type": "address"
        },
        {
          "name": "_projectTitle",
          "type": "string"
        },
        {
          "name": "_projectDescription",
          "type": "string"
        }
      ],
      "payable": false,
      "stateMutability": "nonpayable",
      "type": "constructor"
    },
    {
      "anonymous": false,
      "inputs": [
        {
          "indexed": true,
          "name": "previousOwner",
          "type": "address"
        },
        {
          "indexed": true,
          "name": "newOwner",
          "type": "address"
        }
      ],
      "name": "OwnershipTransferred",
      "type": "event"
    },
    {
      "constant": false,
      "inputs": [
        {
          "name": "_optionTitle",
          "type": "string"
        },
        {
          "name": "_optionDescription",
          "type": "string"
        },
        {
          "name": "_optionAmountEther",
          "type": "uint256"
        },
        {
          "name": "_optionAvailability",
          "type": "int256"
        }
      ],
      "name": "addBackingOption",
      "outputs": [],
      "payable": false,
      "stateMutability": "nonpayable",
      "type": "function"
    },
    {
      "constant": true,
      "inputs": [
        {
          "name": "index",
          "type": "uint256"
        }
      ],
      "name": "getBackingOption",
      "outputs": [
        {
          "name": "",
          "type": "string"
        },
        {
          "name": "",
          "type": "string"
        },
        {
          "name": "",
          "type": "uint256"
        },
        {
          "name": "",
          "type": "int256"
        }
      ],
      "payable": false,
      "stateMutability": "view",
      "type": "function"
    },
    {
      "constant": true,
      "inputs": [],
      "name": "getBackingOptionsCount",
      "outputs": [
        {
          "name": "",
          "type": "uint256"
        }
      ],
      "payable": false,
      "stateMutability": "view",
      "type": "function"
    },
    {
      "constant": false,
      "inputs": [
        {
          "name": "backingOptionID",
          "type": "int256"
        }
      ],
      "name": "addInvestor",
      "outputs": [
        {
          "name": "",
          "type": "bool"
        }
      ],
      "payable": true,
      "stateMutability": "payable",
      "type": "function"
    },
    {
      "constant": false,
      "inputs": [
        {
          "name": "_requestTitle",
          "type": "string"
        },
        {
          "name": "_requestDescription",
          "type": "string"
        },
        {
          "name": "_valideUntil",
          "type": "uint256"
        },
        {
          "name": "_amount",
          "type": "uint256"
        }
      ],
      "name": "addRequest",
      "outputs": [
        {
          "name": "",
          "type": "bool"
        }
      ],
      "payable": false,
      "stateMutability": "nonpayable",
      "type": "function"
    },
    {
      "constant": false,
      "inputs": [
        {
          "name": "isAccepted",
          "type": "bool"
        }
      ],
      "name": "voteForCurrentRequest",
      "outputs": [],
      "payable": false,
      "stateMutability": "nonpayable",
      "type": "function"
    },
    {
      "constant": true,
      "inputs": [],
      "name": "getCurrentVotes",
      "outputs": [
        {
          "name": "",
          "type": "int256"
        },
        {
          "name": "",
          "type": "int256"
        },
        {
          "name": "",
          "type": "uint256"
        }
      ],
      "payable": false,
      "stateMutability": "view",
      "type": "function"
    },
    {
      "constant": false,
      "inputs": [],
      "name": "requestPayout",
      "outputs": [
        {
          "name": "",
          "type": "bool"
        }
      ],
      "payable": true,
      "stateMutability": "payable",
      "type": "function"
    }
  ],
  "bytecode": "0x608060405260016003553480156200001657600080fd5b50604051620014c0380380620014c0833981018060405260608110156200003c57600080fd5b810190808051906020019092919080516401000000008111156200005f57600080fd5b828101905060208101848111156200007657600080fd5b81518560018202830111640100000000821117156200009457600080fd5b50509291906020018051640100000000811115620000b157600080fd5b82810190506020810184811115620000c857600080fd5b8151856001820283011164010000000082111715620000e657600080fd5b5050929190505050336000806101000a81548173ffffffffffffffffffffffffffffffffffffffff021916908373ffffffffffffffffffffffffffffffffffffffff160217905550826000806101000a81548173ffffffffffffffffffffffffffffffffffffffff021916908373ffffffffffffffffffffffffffffffffffffffff160217905550816001908051906020019062000186929190620001a9565b5080600290805190602001906200019f929190620001a9565b5050505062000258565b828054600181600116156101000203166002900490600052602060002090601f016020900481019282601f10620001ec57805160ff19168380011785556200021d565b828001600101855582156200021d579182015b828111156200021c578251825591602001919060010190620001ff565b5b5090506200022c919062000230565b5090565b6200025591905b808211156200025157600081600090555060010162000237565b5090565b90565b61125880620002686000396000f3fe6080604052600436106100a4576000357c0100000000000000000000000000000000000000000000000000000000900463ffffffff16806342d8efa1146100a95780635e8f8993146100ef57806365058f4c1461011a57806372b4ca471461013c5780637f0fcd61146101755780638da5cb5b146102e8578063bed50bd31461033f578063d9ad9a1a146104ca578063ec912d7b146105f8578063f2fde38b14610635575b600080fd5b6100d5600480360360208110156100bf57600080fd5b8101908080359060200190929190505050610686565b604051808215151515815260200191505060405180910390f35b3480156100fb57600080fd5b506101046108b6565b6040518082815260200191505060405180910390f35b6101226108c3565b604051808215151515815260200191505060405180910390f35b34801561014857600080fd5b5061015161098e565b60405180848152602001838152602001828152602001935050505060405180910390f35b34801561018157600080fd5b506102e66004803603608081101561019857600080fd5b81019080803590602001906401000000008111156101b557600080fd5b8201836020820111156101c757600080fd5b803590602001918460018302840111640100000000831117156101e957600080fd5b91908080601f016020809104026020016040519081016040528093929190818152602001838380828437600081840152601f19601f8201169050808301925050505050505091929192908035906020019064010000000081111561024c57600080fd5b82018360208201111561025e57600080fd5b8035906020019184600183028401116401000000008311171561028057600080fd5b91908080601f016020809104026020016040519081016040528093929190818152602001838380828437600081840152601f19601f82011690508083019250505050505050919291929080359060200190929190803590602001909291905050506109af565b005b3480156102f457600080fd5b506102fd610ae0565b604051808273ffffffffffffffffffffffffffffffffffffffff1673ffffffffffffffffffffffffffffffffffffffff16815260200191505060405180910390f35b34801561034b57600080fd5b506104b06004803603608081101561036257600080fd5b810190808035906020019064010000000081111561037f57600080fd5b82018360208201111561039157600080fd5b803590602001918460018302840111640100000000831117156103b357600080fd5b91908080601f016020809104026020016040519081016040528093929190818152602001838380828437600081840152601f19601f8201169050808301925050505050505091929192908035906020019064010000000081111561041657600080fd5b82018360208201111561042857600080fd5b8035906020019184600183028401116401000000008311171561044a57600080fd5b91908080601f016020809104026020016040519081016040528093929190818152602001838380828437600081840152601f19601f8201169050808301925050505050505091929192908035906020019092919080359060200190929190505050610b05565b604051808215151515815260200191505060405180910390f35b3480156104d657600080fd5b50610503600480360360208110156104ed57600080fd5b8101908080359060200190929190505050610c4e565b604051808060200180602001858152602001848152602001838103835287818151815260200191508051906020019080838360005b83811015610553578082015181840152602081019050610538565b50505050905090810190601f1680156105805780820380516001836020036101000a031916815260200191505b50838103825286818151815260200191508051906020019080838360005b838110156105b957808201518184015260208101905061059e565b50505050905090810190601f1680156105e65780820380516001836020036101000a031916815260200191505b50965050505050505060405180910390f35b34801561060457600080fd5b506106336004803603602081101561061b57600080fd5b81019080803515159060200190929190505050610e67565b005b34801561064157600080fd5b506106846004803603602081101561065857600080fd5b81019080803573ffffffffffffffffffffffffffffffffffffffff169060200190929190505050611002565b005b60008060008090505b600b805490508110156106d95783600b828154811015156106ac57fe5b90600052602060002090600502016004015414156106cc578091506106d9565b808060010191505061068f565b506000600b828154811015156106eb57fe5b906000526020600020906005020160040154141561070d5760009150506108b1565b600b8181548110151561071c57fe5b906000526020600020906005020160020154341415156107405760009150506108b1565b6000600b8281548110151561075157fe5b9060005260206000209060050201600301541315156107745760009150506108b1565b6080604051908101604052803373ffffffffffffffffffffffffffffffffffffffff1681526020018481526020016002808111156107ae57fe5b81526020016001815250600d60003373ffffffffffffffffffffffffffffffffffffffff1673ffffffffffffffffffffffffffffffffffffffff16815260200190815260200160002060008201518160000160006101000a81548173ffffffffffffffffffffffffffffffffffffffff021916908373ffffffffffffffffffffffffffffffffffffffff1602179055506020820151816001015560408201518160020160006101000a81548160ff0219169083600281111561086c57fe5b021790555060608201518160030155905050600b8181548110151561088d57fe5b90600052602060002090600502016003016000815480929190600190039190505550505b919050565b6000600b80549050905090565b60008060009054906101000a900473ffffffffffffffffffffffffffffffffffffffff1673ffffffffffffffffffffffffffffffffffffffff163373ffffffffffffffffffffffffffffffffffffffff1614151561092057600080fd5b600c805490506002600480015481151561093657fe5b05131515610947576000905061098b565b600460060160009054906101000a900460ff1615610968576000905061098b565b6001600460060160006101000a81548160ff021916908315150217905550600190505b90565b60008060006004800154600460050154600c80549050925092509250909192565b6000809054906101000a900473ffffffffffffffffffffffffffffffffffffffff1673ffffffffffffffffffffffffffffffffffffffff163373ffffffffffffffffffffffffffffffffffffffff16141515610a0a57600080fd5b610a12611157565b60a0604051908101604052808681526020018581526020018481526020018381526020016003548152509050600b81908060018154018082558091505090600182039060005260206000209060050201600090919290919091506000820151816000019080519060200190610a88929190611187565b506020820151816001019080519060200190610aa5929190611187565b506040820151816002015560608201518160030155608082015181600401555050506003600081548092919060010191905055505050505050565b6000809054906101000a900473ffffffffffffffffffffffffffffffffffffffff1681565b60008060009054906101000a900473ffffffffffffffffffffffffffffffffffffffff1673ffffffffffffffffffffffffffffffffffffffff163373ffffffffffffffffffffffffffffffffffffffff16141515610b6257600080fd5b426004600201541015610b785760009050610c46565b610b806108c3565b5060e06040519081016040528086815260200185815260200184815260200183815260200160008152602001600081526020016000151581525060046000820151816000019080519060200190610bd8929190611187565b506020820151816001019080519060200190610bf5929190611187565b5060408201518160020155606082015181600301556080820151816004015560a0820151816005015560c08201518160060160006101000a81548160ff021916908315150217905550905050600190505b949350505050565b606080600080600b80549050851115610c9d5760008060206040519081016040528060008152509190602060405190810160405280600081525091908191508090509350935093509350610e60565b600b85815481101515610cac57fe5b9060005260206000209060050201600001600b86815481101515610ccc57fe5b9060005260206000209060050201600101600b87815481101515610cec57fe5b906000526020600020906005020160020154600b88815481101515610d0d57fe5b906000526020600020906005020160030154838054600181600116156101000203166002900480601f016020809104026020016040519081016040528092919081815260200182805460018160011615610100020316600290048015610db45780601f10610d8957610100808354040283529160200191610db4565b820191906000526020600020905b815481529060010190602001808311610d9757829003601f168201915b50505050509350828054600181600116156101000203166002900480601f016020809104026020016040519081016040528092919081815260200182805460018160011615610100020316600290048015610e505780601f10610e2557610100808354040283529160200191610e50565b820191906000526020600020905b815481529060010190602001808311610e3357829003601f168201915b5050505050925093509350935093505b9193509193565b6000600d60003373ffffffffffffffffffffffffffffffffffffffff1673ffffffffffffffffffffffffffffffffffffffff168152602001908152602001600020600301541415610eb757610fff565b600280811115610ec357fe5b600d60003373ffffffffffffffffffffffffffffffffffffffff1673ffffffffffffffffffffffffffffffffffffffff16815260200190815260200160002060020160009054906101000a900460ff166002811115610f1e57fe5b141515610f2a57610fff565b8015610f99576000600d60003373ffffffffffffffffffffffffffffffffffffffff1673ffffffffffffffffffffffffffffffffffffffff16815260200190815260200160002060020160006101000a81548160ff02191690836002811115610f8f57fe5b0217905550610ffe565b6001600d60003373ffffffffffffffffffffffffffffffffffffffff1673ffffffffffffffffffffffffffffffffffffffff16815260200190815260200160002060020160006101000a81548160ff02191690836002811115610ff857fe5b02179055505b5b50565b6000809054906101000a900473ffffffffffffffffffffffffffffffffffffffff1673ffffffffffffffffffffffffffffffffffffffff163373ffffffffffffffffffffffffffffffffffffffff1614151561105d57600080fd5b600073ffffffffffffffffffffffffffffffffffffffff168173ffffffffffffffffffffffffffffffffffffffff161415151561109957600080fd5b8073ffffffffffffffffffffffffffffffffffffffff166000809054906101000a900473ffffffffffffffffffffffffffffffffffffffff1673ffffffffffffffffffffffffffffffffffffffff167f8be0079c531659141344cd1fd0a4f28419497f9722a3daafe3b4186f6b6457e060405160405180910390a3806000806101000a81548173ffffffffffffffffffffffffffffffffffffffff021916908373ffffffffffffffffffffffffffffffffffffffff16021790555050565b60a06040519081016040528060608152602001606081526020016000815260200160008152602001600081525090565b828054600181600116156101000203166002900490600052602060002090601f016020900481019282601f106111c857805160ff19168380011785556111f6565b828001600101855582156111f6579182015b828111156111f55782518255916020019190600101906111da565b5b5090506112039190611207565b5090565b61122991905b8082111561122557600081600090555060010161120d565b5090565b9056fea165627a7a7230582078a3bd1ae1d55f1f5b83b9ffc2de8d2876f0d270fda2c3a117af1232ec7ab9df0029",
  "source": "pragma solidity ^0.5.0;\n\nimport \"./Ownable.sol\";\nimport \"../../Libs/DateLib.sol\";\n\ncontract ProjectContract is Ownable{\n\n    string projectTitle;\n    string projectDescription;\n    int backerOptionsID = 1;\n    Request currentRequest;\n    BackingOption[] backingOptions;\n    address[] investorAddresses;\n    mapping(address => Investor) Investors;\n\n\n    struct BackingOption{\n        string optionTitle;\n        string optionDescription;\n        uint optionAmountEther;\n        int optionAvailability;\n        int id;\n    }\n\n    struct Request{\n        string requestTitle;\n        string requestDescription;\n        uint256 valideUntil;\n        uint amount;\n        int numberAcceptedVotes;\n        int numberRejectedVotes;\n        bool wasPayed;\n    }\n\n    struct Investor{\n        address investorAddress;\n        int choosenBackingOptionID;\n        Vote currentVote;\n        int investorExists; //is needed because a mapping contains all possible keys\n    }\n\n    enum Vote{\n        Accepted,\n        Rejected,\n        NoVoteGiven\n    }\n\n    constructor(address _owner, string memory _projectTitle, string memory _projectDescription) public\n    {\n        owner = _owner;\n        projectTitle = _projectTitle;\n        projectDescription = _projectDescription;\n    }\n\n    function addBackingOption(string memory _optionTitle, string memory _optionDescription,\n    uint _optionAmountEther, int _optionAvailability) public onlyOwner\n    {\n        BackingOption memory backingOption = BackingOption(_optionTitle, _optionDescription, _optionAmountEther,\n            _optionAvailability, backerOptionsID);\n        backingOptions.push(backingOption);\n        backerOptionsID++;\n    }\n\n    function getBackingOption(uint index) public view returns(string memory, string memory, uint, int)\n    {\n        if(index > backingOptions.length){\n            return (\"\", \"\", 0, 0);\n        }\n        return (backingOptions[index].optionTitle, backingOptions[index].optionDescription,\n            backingOptions[index].optionAmountEther, backingOptions[index].optionAvailability);\n    }\n\n    function getBackingOptionsCount()public view returns (uint){\n        return backingOptions.length;\n    }\n\n    function addInvestor(int backingOptionID) public payable returns (bool)\n    {\n        uint  optionIndex;\n        for (uint i = 0; i<backingOptions.length; i++){\n            if(backingOptions[i].id == backingOptionID){\n                optionIndex = i;\n                break;\n            }\n        }\n\n        //BackingOption mit übergebener ID wurde nicht gefunden\n        if(backingOptions[optionIndex].id == 0){\n            return false;\n        }\n\n        //Der gesendete Ether Amount entspricht nicht der gewählten BackingOption\n        if(msg.value != backingOptions[optionIndex].optionAmountEther){\n            return false;\n        }\n\n        //Die Option ist nicht mehr verfügbar\n        if(backingOptions[optionIndex].optionAvailability <= 0){\n            return false;\n        }\n\n        Investors[msg.sender] = Investor(msg.sender, backingOptionID, Vote.NoVoteGiven, 1);\n        backingOptions[optionIndex].optionAvailability--;\n        //payin\n    }\n\n    function addRequest(string memory _requestTitle, string memory _requestDescription,\n    uint256 _valideUntil, uint _amount) public onlyOwner returns (bool)\n    {\n        //TDDO: Check if currentRequest is not null\n        if(currentRequest.valideUntil < block.timestamp)\n        {\n            return false;\n        }\n        requestPayout();\n        currentRequest = Request(_requestTitle, _requestDescription, _valideUntil, _amount, 0, 0, false);\n        return true;\n    }\n\n    function voteForCurrentRequest(bool isAccepted) public\n    {\n\n        //Addresse ist kein Investor\n        if(Investors[msg.sender].investorExists == 0){\n            return;\n        }\n\n        //Addresse hat bereits abgestimmt\n        if(Investors[msg.sender].currentVote != Vote.NoVoteGiven){\n            return;\n        }\n        if(isAccepted){\n            Investors[msg.sender].currentVote = Vote.Accepted;\n        }\n        else{\n            Investors[msg.sender].currentVote = Vote.Rejected;\n        }\n    }\n\n    function getCurrentVotes() public view returns (int256, int256, uint256){\n        return (currentRequest.numberAcceptedVotes, currentRequest.numberRejectedVotes, investorAddresses.length);\n    }\n\n    function requestPayout() public payable onlyOwner returns (bool)\n    {\n        //Mehrheit ist nicht erreicht\n        if(!((currentRequest.numberAcceptedVotes / 2) > int256 (investorAddresses.length))){\n            return false;\n        }\n        //Der Request wurde bereits ausgezahlt\n        if(currentRequest.wasPayed){\n            return false;\n        }\n        //payout\n        currentRequest.wasPayed = true;\n        return true;\n    }\n  \n}",
  "sourcePath": "/Users/Nils/Documents/Repos/Blockchain/Contracts/ProjectContract/contracts/ProjectContract.sol",
  "compiler": {
    "name": "solc",
    "version": "0.5.0+commit.1d4f565a.Emscripten.clang"
  },
  "schemaVersion": "3.0.9",
  "updatedAt": "2019-05-13T07:12:17.221Z",
  "devdoc": {
    "methods": {
      "transferOwnership(address)": {
        "details": "Allows the current owner to transfer control of the contract to a newOwner.",
        "params": {
          "newOwner": "The address to transfer ownership to."
        }
      }
    }
  },
  "userdoc": {
    "methods": {}
  }
}