{
  "contractName": "ProjectHubContract",
  "abi": [
    {
      "constant": false,
      "inputs": [
        {
          "name": "projectName",
          "type": "string"
        },
        {
          "name": "projectDescription",
          "type": "string"
        }
      ],
      "name": "addNewProject",
      "outputs": [
        {
          "name": "",
          "type": "bool"
        }
      ],
      "payable": false,
      "stateMutability": "nonpayable",
      "type": "function"
    }
  ],
  "bytecode": "0x608060405234801561001057600080fd5b50611a47806100206000396000f3fe608060405260043610610041576000357c0100000000000000000000000000000000000000000000000000000000900463ffffffff168063d1eb3bd914610046575b600080fd5b34801561005257600080fd5b506101a36004803603604081101561006957600080fd5b810190808035906020019064010000000081111561008657600080fd5b82018360208201111561009857600080fd5b803590602001918460018302840111640100000000831117156100ba57600080fd5b91908080601f016020809104026020016040519081016040528093929190818152602001838380828437600081840152601f19601f8201169050808301925050505050505091929192908035906020019064010000000081111561011d57600080fd5b82018360208201111561012f57600080fd5b8035906020019184600183028401116401000000008311171561015157600080fd5b91908080601f016020809104026020016040519081016040528093929190818152602001838380828437600081840152601f19601f8201169050808301925050505050505091929192905050506101bd565b604051808215151515815260200191505060405180910390f35b6000803384846101cb610451565b808473ffffffffffffffffffffffffffffffffffffffff1673ffffffffffffffffffffffffffffffffffffffff1681526020018060200180602001838103835285818151815260200191508051906020019080838360005b8381101561023e578082015181840152602081019050610223565b50505050905090810190601f16801561026b5780820380516001836020036101000a031916815260200191505b50838103825284818151815260200191508051906020019080838360005b838110156102a4578082015181840152602081019050610289565b50505050905090810190601f1680156102d15780820380516001836020036101000a031916815260200191505b5095505050505050604051809103906000f0801580156102f5573d6000803e3d6000fd5b509050610300610461565b6080604051908101604052803373ffffffffffffffffffffffffffffffffffffffff1681526020018373ffffffffffffffffffffffffffffffffffffffff1681526020018681526020018581525090506000819080600181540180825580915050906001820390600052602060002090600402016000909192909190915060008201518160000160006101000a81548173ffffffffffffffffffffffffffffffffffffffff021916908373ffffffffffffffffffffffffffffffffffffffff16021790555060208201518160010160006101000a81548173ffffffffffffffffffffffffffffffffffffffff021916908373ffffffffffffffffffffffffffffffffffffffff16021790555060408201518160020190805190602001906104289291906104b6565b5060608201518160030190805190602001906104459291906104b6565b50505050505092915050565b6040516114c08061055c83390190565b608060405190810160405280600073ffffffffffffffffffffffffffffffffffffffff168152602001600073ffffffffffffffffffffffffffffffffffffffff16815260200160608152602001606081525090565b828054600181600116156101000203166002900490600052602060002090601f016020900481019282601f106104f757805160ff1916838001178555610525565b82800160010185558215610525579182015b82811115610524578251825591602001919060010190610509565b5b5090506105329190610536565b5090565b61055891905b8082111561055457600081600090555060010161053c565b5090565b9056fe608060405260016003553480156200001657600080fd5b50604051620014c0380380620014c0833981018060405260608110156200003c57600080fd5b810190808051906020019092919080516401000000008111156200005f57600080fd5b828101905060208101848111156200007657600080fd5b81518560018202830111640100000000821117156200009457600080fd5b50509291906020018051640100000000811115620000b157600080fd5b82810190506020810184811115620000c857600080fd5b8151856001820283011164010000000082111715620000e657600080fd5b5050929190505050336000806101000a81548173ffffffffffffffffffffffffffffffffffffffff021916908373ffffffffffffffffffffffffffffffffffffffff160217905550826000806101000a81548173ffffffffffffffffffffffffffffffffffffffff021916908373ffffffffffffffffffffffffffffffffffffffff160217905550816001908051906020019062000186929190620001a9565b5080600290805190602001906200019f929190620001a9565b5050505062000258565b828054600181600116156101000203166002900490600052602060002090601f016020900481019282601f10620001ec57805160ff19168380011785556200021d565b828001600101855582156200021d579182015b828111156200021c578251825591602001919060010190620001ff565b5b5090506200022c919062000230565b5090565b6200025591905b808211156200025157600081600090555060010162000237565b5090565b90565b61125880620002686000396000f3fe6080604052600436106100a4576000357c0100000000000000000000000000000000000000000000000000000000900463ffffffff16806342d8efa1146100a95780635e8f8993146100ef57806365058f4c1461011a57806372b4ca471461013c5780637f0fcd61146101755780638da5cb5b146102e8578063bed50bd31461033f578063d9ad9a1a146104ca578063ec912d7b146105f8578063f2fde38b14610635575b600080fd5b6100d5600480360360208110156100bf57600080fd5b8101908080359060200190929190505050610686565b604051808215151515815260200191505060405180910390f35b3480156100fb57600080fd5b506101046108b6565b6040518082815260200191505060405180910390f35b6101226108c3565b604051808215151515815260200191505060405180910390f35b34801561014857600080fd5b5061015161098e565b60405180848152602001838152602001828152602001935050505060405180910390f35b34801561018157600080fd5b506102e66004803603608081101561019857600080fd5b81019080803590602001906401000000008111156101b557600080fd5b8201836020820111156101c757600080fd5b803590602001918460018302840111640100000000831117156101e957600080fd5b91908080601f016020809104026020016040519081016040528093929190818152602001838380828437600081840152601f19601f8201169050808301925050505050505091929192908035906020019064010000000081111561024c57600080fd5b82018360208201111561025e57600080fd5b8035906020019184600183028401116401000000008311171561028057600080fd5b91908080601f016020809104026020016040519081016040528093929190818152602001838380828437600081840152601f19601f82011690508083019250505050505050919291929080359060200190929190803590602001909291905050506109af565b005b3480156102f457600080fd5b506102fd610ae0565b604051808273ffffffffffffffffffffffffffffffffffffffff1673ffffffffffffffffffffffffffffffffffffffff16815260200191505060405180910390f35b34801561034b57600080fd5b506104b06004803603608081101561036257600080fd5b810190808035906020019064010000000081111561037f57600080fd5b82018360208201111561039157600080fd5b803590602001918460018302840111640100000000831117156103b357600080fd5b91908080601f016020809104026020016040519081016040528093929190818152602001838380828437600081840152601f19601f8201169050808301925050505050505091929192908035906020019064010000000081111561041657600080fd5b82018360208201111561042857600080fd5b8035906020019184600183028401116401000000008311171561044a57600080fd5b91908080601f016020809104026020016040519081016040528093929190818152602001838380828437600081840152601f19601f8201169050808301925050505050505091929192908035906020019092919080359060200190929190505050610b05565b604051808215151515815260200191505060405180910390f35b3480156104d657600080fd5b50610503600480360360208110156104ed57600080fd5b8101908080359060200190929190505050610c4e565b604051808060200180602001858152602001848152602001838103835287818151815260200191508051906020019080838360005b83811015610553578082015181840152602081019050610538565b50505050905090810190601f1680156105805780820380516001836020036101000a031916815260200191505b50838103825286818151815260200191508051906020019080838360005b838110156105b957808201518184015260208101905061059e565b50505050905090810190601f1680156105e65780820380516001836020036101000a031916815260200191505b50965050505050505060405180910390f35b34801561060457600080fd5b506106336004803603602081101561061b57600080fd5b81019080803515159060200190929190505050610e67565b005b34801561064157600080fd5b506106846004803603602081101561065857600080fd5b81019080803573ffffffffffffffffffffffffffffffffffffffff169060200190929190505050611002565b005b60008060008090505b600b805490508110156106d95783600b828154811015156106ac57fe5b90600052602060002090600502016004015414156106cc578091506106d9565b808060010191505061068f565b506000600b828154811015156106eb57fe5b906000526020600020906005020160040154141561070d5760009150506108b1565b600b8181548110151561071c57fe5b906000526020600020906005020160020154341415156107405760009150506108b1565b6000600b8281548110151561075157fe5b9060005260206000209060050201600301541315156107745760009150506108b1565b6080604051908101604052803373ffffffffffffffffffffffffffffffffffffffff1681526020018481526020016002808111156107ae57fe5b81526020016001815250600d60003373ffffffffffffffffffffffffffffffffffffffff1673ffffffffffffffffffffffffffffffffffffffff16815260200190815260200160002060008201518160000160006101000a81548173ffffffffffffffffffffffffffffffffffffffff021916908373ffffffffffffffffffffffffffffffffffffffff1602179055506020820151816001015560408201518160020160006101000a81548160ff0219169083600281111561086c57fe5b021790555060608201518160030155905050600b8181548110151561088d57fe5b90600052602060002090600502016003016000815480929190600190039190505550505b919050565b6000600b80549050905090565b60008060009054906101000a900473ffffffffffffffffffffffffffffffffffffffff1673ffffffffffffffffffffffffffffffffffffffff163373ffffffffffffffffffffffffffffffffffffffff1614151561092057600080fd5b600c805490506002600480015481151561093657fe5b05131515610947576000905061098b565b600460060160009054906101000a900460ff1615610968576000905061098b565b6001600460060160006101000a81548160ff021916908315150217905550600190505b90565b60008060006004800154600460050154600c80549050925092509250909192565b6000809054906101000a900473ffffffffffffffffffffffffffffffffffffffff1673ffffffffffffffffffffffffffffffffffffffff163373ffffffffffffffffffffffffffffffffffffffff16141515610a0a57600080fd5b610a12611157565b60a0604051908101604052808681526020018581526020018481526020018381526020016003548152509050600b81908060018154018082558091505090600182039060005260206000209060050201600090919290919091506000820151816000019080519060200190610a88929190611187565b506020820151816001019080519060200190610aa5929190611187565b506040820151816002015560608201518160030155608082015181600401555050506003600081548092919060010191905055505050505050565b6000809054906101000a900473ffffffffffffffffffffffffffffffffffffffff1681565b60008060009054906101000a900473ffffffffffffffffffffffffffffffffffffffff1673ffffffffffffffffffffffffffffffffffffffff163373ffffffffffffffffffffffffffffffffffffffff16141515610b6257600080fd5b426004600201541015610b785760009050610c46565b610b806108c3565b5060e06040519081016040528086815260200185815260200184815260200183815260200160008152602001600081526020016000151581525060046000820151816000019080519060200190610bd8929190611187565b506020820151816001019080519060200190610bf5929190611187565b5060408201518160020155606082015181600301556080820151816004015560a0820151816005015560c08201518160060160006101000a81548160ff021916908315150217905550905050600190505b949350505050565b606080600080600b80549050851115610c9d5760008060206040519081016040528060008152509190602060405190810160405280600081525091908191508090509350935093509350610e60565b600b85815481101515610cac57fe5b9060005260206000209060050201600001600b86815481101515610ccc57fe5b9060005260206000209060050201600101600b87815481101515610cec57fe5b906000526020600020906005020160020154600b88815481101515610d0d57fe5b906000526020600020906005020160030154838054600181600116156101000203166002900480601f016020809104026020016040519081016040528092919081815260200182805460018160011615610100020316600290048015610db45780601f10610d8957610100808354040283529160200191610db4565b820191906000526020600020905b815481529060010190602001808311610d9757829003601f168201915b50505050509350828054600181600116156101000203166002900480601f016020809104026020016040519081016040528092919081815260200182805460018160011615610100020316600290048015610e505780601f10610e2557610100808354040283529160200191610e50565b820191906000526020600020905b815481529060010190602001808311610e3357829003601f168201915b5050505050925093509350935093505b9193509193565b6000600d60003373ffffffffffffffffffffffffffffffffffffffff1673ffffffffffffffffffffffffffffffffffffffff168152602001908152602001600020600301541415610eb757610fff565b600280811115610ec357fe5b600d60003373ffffffffffffffffffffffffffffffffffffffff1673ffffffffffffffffffffffffffffffffffffffff16815260200190815260200160002060020160009054906101000a900460ff166002811115610f1e57fe5b141515610f2a57610fff565b8015610f99576000600d60003373ffffffffffffffffffffffffffffffffffffffff1673ffffffffffffffffffffffffffffffffffffffff16815260200190815260200160002060020160006101000a81548160ff02191690836002811115610f8f57fe5b0217905550610ffe565b6001600d60003373ffffffffffffffffffffffffffffffffffffffff1673ffffffffffffffffffffffffffffffffffffffff16815260200190815260200160002060020160006101000a81548160ff02191690836002811115610ff857fe5b02179055505b5b50565b6000809054906101000a900473ffffffffffffffffffffffffffffffffffffffff1673ffffffffffffffffffffffffffffffffffffffff163373ffffffffffffffffffffffffffffffffffffffff1614151561105d57600080fd5b600073ffffffffffffffffffffffffffffffffffffffff168173ffffffffffffffffffffffffffffffffffffffff161415151561109957600080fd5b8073ffffffffffffffffffffffffffffffffffffffff166000809054906101000a900473ffffffffffffffffffffffffffffffffffffffff1673ffffffffffffffffffffffffffffffffffffffff167f8be0079c531659141344cd1fd0a4f28419497f9722a3daafe3b4186f6b6457e060405160405180910390a3806000806101000a81548173ffffffffffffffffffffffffffffffffffffffff021916908373ffffffffffffffffffffffffffffffffffffffff16021790555050565b60a06040519081016040528060608152602001606081526020016000815260200160008152602001600081525090565b828054600181600116156101000203166002900490600052602060002090601f016020900481019282601f106111c857805160ff19168380011785556111f6565b828001600101855582156111f6579182015b828111156111f55782518255916020019190600101906111da565b5b5090506112039190611207565b5090565b61122991905b8082111561122557600081600090555060010161120d565b5090565b9056fea165627a7a7230582078a3bd1ae1d55f1f5b83b9ffc2de8d2876f0d270fda2c3a117af1232ec7ab9df0029a165627a7a723058203b6d5f21a3fa486df4950e612b0bbff471815761d394c6863c99be2e7f3311160029",
  "source": "pragma solidity ^0.5;\n\nimport \"../../ProjectContract/contracts/ProjectContract.sol\";\n\n\ncontract ProjectHubContract{\n\n    Project[] projects;\n\n    struct Project{\n        address owner;\n        address projectAdress;\n        string projectName;\n        string projectDescription;\n    }\n\n\n    function addNewProject(string memory projectName, string memory projectDescription) public returns (bool)\n    {\n        ProjectContract projectContract = new ProjectContract(msg.sender, projectName, projectDescription);\n        Project memory project = Project(msg.sender, address(projectContract), projectName, projectDescription);\n        projects.push(project);\n    }\n}\n\n",
  "sourcePath": "/Users/Nils/Documents/Repos/Blockchain/Contracts/ProjectHubContract/contracts/ProjectHubContract.sol",
  "compiler": {
    "name": "solc",
    "version": "0.5.0+commit.1d4f565a.Emscripten.clang"
  },
  "schemaVersion": "3.0.9",
  "updatedAt": "2019-05-13T07:38:43.465Z",
  "devdoc": {
    "methods": {}
  },
  "userdoc": {
    "methods": {}
  }
}