{
  "contractName": "ProjectContract",
  "abi": [
    {
      "constant": true,
      "inputs": [],
      "name": "owner",
      "outputs": [
        {
          "name": "",
          "type": "address"
        }
      ],
      "payable": false,
      "stateMutability": "view",
      "type": "function"
    },
    {
      "constant": false,
      "inputs": [
        {
          "name": "newOwner",
          "type": "address"
        }
      ],
      "name": "transferOwnership",
      "outputs": [],
      "payable": false,
      "stateMutability": "nonpayable",
      "type": "function"
    },
    {
      "inputs": [
        {
          "name": "_owner",
          "type": "address"
        },
        {
          "name": "_projectTitle",
          "type": "string"
        },
        {
          "name": "_projectDescription",
          "type": "string"
        },
        {
          "name": "_fundingGoal",
          "type": "uint256"
        },
        {
          "name": "_fundingCloseDate",
          "type": "uint256"
        },
        {
          "name": "_projectClosingDate",
          "type": "uint256"
        },
        {
          "name": "_projectHub",
          "type": "address"
        }
      ],
      "payable": false,
      "stateMutability": "nonpayable",
      "type": "constructor"
    },
    {
      "payable": true,
      "stateMutability": "payable",
      "type": "fallback"
    },
    {
      "anonymous": false,
      "inputs": [
        {
          "indexed": false,
          "name": "numberAcceptedVotes",
          "type": "int256"
        },
        {
          "indexed": false,
          "name": "numberRejectedVotes",
          "type": "int256"
        }
      ],
      "name": "VoteGiven",
      "type": "event"
    },
    {
      "anonymous": false,
      "inputs": [
        {
          "indexed": false,
          "name": "optionTitle",
          "type": "string"
        },
        {
          "indexed": false,
          "name": "optionDescription",
          "type": "string"
        },
        {
          "indexed": false,
          "name": "optionAmountEther",
          "type": "uint256"
        },
        {
          "indexed": false,
          "name": "optionAvailability",
          "type": "int256"
        },
        {
          "indexed": false,
          "name": "id",
          "type": "uint256"
        }
      ],
      "name": "CreatedBackingOption",
      "type": "event"
    },
    {
      "anonymous": false,
      "inputs": [
        {
          "indexed": false,
          "name": "requestTitle",
          "type": "string"
        },
        {
          "indexed": false,
          "name": "requestDescription",
          "type": "string"
        },
        {
          "indexed": false,
          "name": "valideUntil",
          "type": "uint256"
        },
        {
          "indexed": false,
          "name": "amount",
          "type": "uint256"
        }
      ],
      "name": "CreatedRequest",
      "type": "event"
    },
    {
      "anonymous": false,
      "inputs": [
        {
          "indexed": true,
          "name": "previousOwner",
          "type": "address"
        },
        {
          "indexed": true,
          "name": "newOwner",
          "type": "address"
        }
      ],
      "name": "OwnershipTransferred",
      "type": "event"
    },
    {
      "constant": true,
      "inputs": [],
      "name": "getContractState",
      "outputs": [
        {
          "name": "",
          "type": "uint8"
        }
      ],
      "payable": false,
      "stateMutability": "view",
      "type": "function"
    },
    {
      "constant": false,
      "inputs": [
        {
          "name": "_optionTitle",
          "type": "string"
        },
        {
          "name": "_optionDescription",
          "type": "string"
        },
        {
          "name": "_optionAmountWei",
          "type": "uint256"
        },
        {
          "name": "_optionAvailability",
          "type": "int256"
        }
      ],
      "name": "addBackingOption",
      "outputs": [],
      "payable": false,
      "stateMutability": "nonpayable",
      "type": "function"
    },
    {
      "constant": false,
      "inputs": [],
      "name": "closeAddingBackingOptionPeriode",
      "outputs": [],
      "payable": false,
      "stateMutability": "nonpayable",
      "type": "function"
    },
    {
      "constant": true,
      "inputs": [],
      "name": "getBackingOptionsCount",
      "outputs": [
        {
          "name": "",
          "type": "uint256"
        }
      ],
      "payable": false,
      "stateMutability": "view",
      "type": "function"
    },
    {
      "constant": true,
      "inputs": [
        {
          "name": "index",
          "type": "uint256"
        }
      ],
      "name": "getBackingOption",
      "outputs": [
        {
          "name": "",
          "type": "string"
        },
        {
          "name": "",
          "type": "string"
        },
        {
          "name": "",
          "type": "uint256"
        },
        {
          "name": "",
          "type": "int256"
        },
        {
          "name": "",
          "type": "uint256"
        }
      ],
      "payable": false,
      "stateMutability": "view",
      "type": "function"
    },
    {
      "constant": false,
      "inputs": [
        {
          "name": "backingOptionID",
          "type": "uint256"
        }
      ],
      "name": "addInvestor",
      "outputs": [],
      "payable": true,
      "stateMutability": "payable",
      "type": "function"
    },
    {
      "constant": true,
      "inputs": [],
      "name": "getInvestorCount",
      "outputs": [
        {
          "name": "",
          "type": "uint256"
        }
      ],
      "payable": false,
      "stateMutability": "view",
      "type": "function"
    },
    {
      "constant": true,
      "inputs": [],
      "name": "getPeekBalance",
      "outputs": [
        {
          "name": "",
          "type": "uint256"
        }
      ],
      "payable": false,
      "stateMutability": "view",
      "type": "function"
    },
    {
      "constant": false,
      "inputs": [
        {
          "name": "_requestTitle",
          "type": "string"
        },
        {
          "name": "_requestDescription",
          "type": "string"
        },
        {
          "name": "_valideUntil",
          "type": "uint256"
        },
        {
          "name": "_amountWei",
          "type": "uint256"
        }
      ],
      "name": "addRequest",
      "outputs": [],
      "payable": false,
      "stateMutability": "nonpayable",
      "type": "function"
    },
    {
      "constant": false,
      "inputs": [
        {
          "name": "isAccepted",
          "type": "bool"
        }
      ],
      "name": "voteForCurrentRequest",
      "outputs": [],
      "payable": false,
      "stateMutability": "nonpayable",
      "type": "function"
    },
    {
      "constant": true,
      "inputs": [],
      "name": "hasInvestorVotedForCurrentRequest",
      "outputs": [
        {
          "name": "",
          "type": "uint8"
        }
      ],
      "payable": false,
      "stateMutability": "view",
      "type": "function"
    },
    {
      "constant": true,
      "inputs": [],
      "name": "getCurrentRequest",
      "outputs": [
        {
          "name": "requestTitle",
          "type": "string"
        },
        {
          "name": "requestDescription",
          "type": "string"
        },
        {
          "name": "valideUntil",
          "type": "uint256"
        },
        {
          "name": "amount",
          "type": "uint256"
        },
        {
          "name": "numberAcceptedVotes",
          "type": "int256"
        },
        {
          "name": "numberRejectedVotes",
          "type": "int256"
        },
        {
          "name": "wasPayed",
          "type": "bool"
        }
      ],
      "payable": false,
      "stateMutability": "view",
      "type": "function"
    },
    {
      "constant": false,
      "inputs": [],
      "name": "requestPayout",
      "outputs": [],
      "payable": false,
      "stateMutability": "nonpayable",
      "type": "function"
    },
    {
      "constant": false,
      "inputs": [],
      "name": "requestPayback",
      "outputs": [],
      "payable": false,
      "stateMutability": "nonpayable",
      "type": "function"
    },
    {
      "constant": false,
      "inputs": [],
      "name": "requestRefundRemainingFunds",
      "outputs": [],
      "payable": false,
      "stateMutability": "nonpayable",
      "type": "function"
    },
    {
      "constant": true,
      "inputs": [],
      "name": "isUserInvestor",
      "outputs": [
        {
          "name": "",
          "type": "bool"
        }
      ],
      "payable": false,
      "stateMutability": "view",
      "type": "function"
    }
  ],
  "bytecode": "0x608060405260016003556000600460006101000a81548160ff0219169083151502179055506000600460016101000a81548160ff0219169083151502179055506000600460026101000a81548160ff02191690831515021790555060006006553480156200006c57600080fd5b506040516200313e3803806200313e833981018060405260e08110156200009257600080fd5b81019080805190602001909291908051640100000000811115620000b557600080fd5b82810190506020810184811115620000cc57600080fd5b8151856001820283011164010000000082111715620000ea57600080fd5b505092919060200180516401000000008111156200010757600080fd5b828101905060208101848111156200011e57600080fd5b81518560018202830111640100000000821117156200013c57600080fd5b505092919060200180519060200190929190805190602001909291908051906020019092919080519060200190929190505050336000806101000a81548173ffffffffffffffffffffffffffffffffffffffff021916908373ffffffffffffffffffffffffffffffffffffffff16021790555081831062000209576040517f08c379a0000000000000000000000000000000000000000000000000000000008152600401808060200182810382526047815260200180620030f76047913960600191505060405180910390fd5b866000806101000a81548173ffffffffffffffffffffffffffffffffffffffff021916908373ffffffffffffffffffffffffffffffffffffffff160217905550856001908051906020019062000261929190620002de565b5084600290805190602001906200027a929190620002de565b5083600581905550826007819055508160088190555080601060006101000a81548173ffffffffffffffffffffffffffffffffffffffff021916908373ffffffffffffffffffffffffffffffffffffffff160217905550505050505050506200038d565b828054600181600116156101000203166002900490600052602060002090601f016020900481019282601f106200032157805160ff191683800117855562000352565b8280016001018555821562000352579182015b828111156200035157825182559160200191906001019062000334565b5b50905062000361919062000365565b5090565b6200038a91905b80821115620003865760008160009055506001016200036c565b5090565b90565b612d5a806200039d6000396000f3fe6080604052600436106101095760003560e01c80638da5cb5b11610095578063b40303d811610064578063b40303d81461058d578063bed50bd3146105a4578063d9ad9a1a14610717578063ec912d7b1461084c578063f2fde38b1461088957610109565b80638da5cb5b146104c557806395a552191461051c578063960524e31461054b578063a8e3e9dc1461057657610109565b80637ebf6830116100dc5780637ebf68301461019d5780637f0fcd61146101cb5780637f4e48491461033e57806383e998a2146103775780638cea183b146103a257610109565b80634557e6811461010b5780635e8f899314610122578063605926711461014d57806365058f4c14610186575b005b34801561011757600080fd5b506101206108da565b005b34801561012e57600080fd5b50610137610b75565b6040518082815260200191505060405180910390f35b34801561015957600080fd5b50610162610b82565b6040518082600281111561017257fe5b60ff16815260200191505060405180910390f35b34801561019257600080fd5b5061019b610bd9565b005b6101c9600480360360208110156101b357600080fd5b8101908080359060200190929190505050610e40565b005b3480156101d757600080fd5b5061033c600480360360808110156101ee57600080fd5b810190808035906020019064010000000081111561020b57600080fd5b82018360208201111561021d57600080fd5b8035906020019184600183028401116401000000008311171561023f57600080fd5b91908080601f016020809104026020016040519081016040528093929190818152602001838380828437600081840152601f19601f820116905080830192505050505050509192919290803590602001906401000000008111156102a257600080fd5b8201836020820111156102b457600080fd5b803590602001918460018302840111640100000000831117156102d657600080fd5b91908080601f016020809104026020016040519081016040528093929190818152602001838380828437600081840152601f19601f82011690508083019250505050505050919291929080359060200190929190803590602001909291905050506115ef565b005b34801561034a57600080fd5b506103536118aa565b6040518082600481111561036357fe5b60ff16815260200191505060405180910390f35b34801561038357600080fd5b5061038c61191f565b6040518082815260200191505060405180910390f35b3480156103ae57600080fd5b506103b7611929565b6040518080602001806020018881526020018781526020018681526020018581526020018415151515815260200183810383528a818151815260200191508051906020019080838360005b8381101561041d578082015181840152602081019050610402565b50505050905090810190601f16801561044a5780820380516001836020036101000a031916815260200191505b50838103825289818151815260200191508051906020019080838360005b83811015610483578082015181840152602081019050610468565b50505050905090810190601f1680156104b05780820380516001836020036101000a031916815260200191505b50995050505050505050505060405180910390f35b3480156104d157600080fd5b506104da611b33565b604051808273ffffffffffffffffffffffffffffffffffffffff1673ffffffffffffffffffffffffffffffffffffffff16815260200191505060405180910390f35b34801561052857600080fd5b50610531611b58565b604051808215151515815260200191505060405180910390f35b34801561055757600080fd5b50610560611bb5565b6040518082815260200191505060405180910390f35b34801561058257600080fd5b5061058b611bc2565b005b34801561059957600080fd5b506105a2611c38565b005b3480156105b057600080fd5b50610715600480360360808110156105c757600080fd5b81019080803590602001906401000000008111156105e457600080fd5b8201836020820111156105f657600080fd5b8035906020019184600183028401116401000000008311171561061857600080fd5b91908080601f016020809104026020016040519081016040528093929190818152602001838380828437600081840152601f19601f8201169050808301925050505050505091929192908035906020019064010000000081111561067b57600080fd5b82018360208201111561068d57600080fd5b803590602001918460018302840111640100000000831117156106af57600080fd5b91908080601f016020809104026020016040519081016040528093929190818152602001838380828437600081840152601f19601f8201169050808301925050505050505091929192908035906020019092919080359060200190929190505050611e62565b005b34801561072357600080fd5b506107506004803603602081101561073a57600080fd5b81019080803590602001909291905050506123d4565b604051808060200180602001868152602001858152602001848152602001838103835288818151815260200191508051906020019080838360005b838110156107a657808201518184015260208101905061078b565b50505050905090810190601f1680156107d35780820380516001836020036101000a031916815260200191505b50838103825287818151815260200191508051906020019080838360005b8381101561080c5780820151818401526020810190506107f1565b50505050905090810190601f1680156108395780820380516001836020036101000a031916815260200191505b5097505050505050505060405180910390f35b34801561085857600080fd5b506108876004803603602081101561086f57600080fd5b8101908080351515906020019092919050505061263a565b005b34801561089557600080fd5b506108d8600480360360208110156108ac57600080fd5b81019080803573ffffffffffffffffffffffffffffffffffffffff169060200190929190505050612993565b005b4260085410610951576040517f08c379a000000000000000000000000000000000000000000000000000000000815260040180806020018281038252601b8152602001807f50726f6a656374206973206e6f742066696e6973686564206a6574000000000081525060200191505060405180910390fd5b600460029054906101000a900460ff166109b6576040517f08c379a0000000000000000000000000000000000000000000000000000000008152600401808060200182810382526040815260200180612c276040913960400191505060405180910390fd5b60003073ffffffffffffffffffffffffffffffffffffffff163190506000600190505b60008183816109e457fe5b04146109f557600a810290506109d9565b600a81816109ff57fe5b04905060008090505b601280549050811015610b7057600060016013600060128581548110610a2a57fe5b9060005260206000200160009054906101000a900473ffffffffffffffffffffffffffffffffffffffff1673ffffffffffffffffffffffffffffffffffffffff1673ffffffffffffffffffffffffffffffffffffffff16815260200190815260200160002060010154039050600060128381548110610aa557fe5b9060005260206000200160009054906101000a900473ffffffffffffffffffffffffffffffffffffffff169050600060118381548110610ae157fe5b9060005260206000209060050201600201549050600060065486830281610b0457fe5b049050600081878981610b1357fe5b040290508373ffffffffffffffffffffffffffffffffffffffff166108fc829081150290604051600060405180830381858888f19350505050158015610b5d573d6000803e3d6000fd5b5050505050508080600101915050610a08565b505050565b6000601180549050905090565b6000601360003373ffffffffffffffffffffffffffffffffffffffff1673ffffffffffffffffffffffffffffffffffffffff16815260200190815260200160002060020160009054906101000a900460ff16905090565b6000809054906101000a900473ffffffffffffffffffffffffffffffffffffffff1673ffffffffffffffffffffffffffffffffffffffff163373ffffffffffffffffffffffffffffffffffffffff1614610c3257600080fd5b600260128054905081610c4157fe5b046009600401541215610cbc576040517f08c379a00000000000000000000000000000000000000000000000000000000081526004018080602001828103825260188152602001807f4d616a6f7269747920776173206e6f742072656163686564000000000000000081525060200191505060405180910390fd5b600960060160009054906101000a900460ff1615610d42576040517f08c379a000000000000000000000000000000000000000000000000000000000815260040180806020018281038252601d8152602001807f526571756573742077617320616c7265616479207061796564206f757400000081525060200191505060405180910390fd5b4260085411610db9576040517f08c379a00000000000000000000000000000000000000000000000000000000081526004018080602001828103825260118152602001807f50726f6a6563742068617320656e64656400000000000000000000000000000081525060200191505060405180910390fd5b3373ffffffffffffffffffffffffffffffffffffffff166108fc6009600301549081150290604051600060405180830381858888f19350505050158015610e04573d6000803e3d6000fd5b506001600960060160006101000a81548160ff0219169083151502179055506000600460006101000a81548160ff021916908315150217905550565b600460019054906101000a900460ff16610ea5576040517f08c379a0000000000000000000000000000000000000000000000000000000008152600401808060200182810382526031815260200180612c926031913960400191505060405180910390fd5b600080600090505b601180549050811015610ef5578260118281548110610ec857fe5b9060005260206000209060050201600401541415610ee857809150610ef5565b8080600101915050610ead565b50600060118281548110610f0557fe5b9060005260206000209060050201600401541415610f8b576040517f08c379a000000000000000000000000000000000000000000000000000000000815260040180806020018281038252601b8152602001807f4261636b696e674f7074696f6e20776173206e6f7420666f756e64000000000081525060200191505060405180910390fd5b60118181548110610f9857fe5b9060005260206000209060050201600201543414611001576040517f08c379a000000000000000000000000000000000000000000000000000000000815260040180806020018281038252602f815260200180612cc3602f913960400191505060405180910390fd5b60006011828154811061101057fe5b90600052602060002090600502016003015413611078576040517f08c379a0000000000000000000000000000000000000000000000000000000008152600401808060200182810382526025815260200180612bdf6025913960400191505060405180910390fd5b6000601360003373ffffffffffffffffffffffffffffffffffffffff1673ffffffffffffffffffffffffffffffffffffffff1681526020019081526020016000206003015414611130576040517f08c379a000000000000000000000000000000000000000000000000000000000815260040180806020018281038252601d8152602001807f496e766573746f722068617320616c726561647920696e76657374656400000081525060200191505060405180910390fd5b600754421061118a576040517f08c379a0000000000000000000000000000000000000000000000000000000008152600401808060200182810382526026815260200180612bb96026913960400191505060405180910390fd5b60405180608001604052803373ffffffffffffffffffffffffffffffffffffffff1681526020018381526020016002808111156111c357fe5b81526020016001815250601360003373ffffffffffffffffffffffffffffffffffffffff1673ffffffffffffffffffffffffffffffffffffffff16815260200190815260200160002060008201518160000160006101000a81548173ffffffffffffffffffffffffffffffffffffffff021916908373ffffffffffffffffffffffffffffffffffffffff1602179055506020820151816001015560408201518160020160006101000a81548160ff0219169083600281111561128157fe5b02179055506060820151816003015590505060123390806001815401808255809150509060018203906000526020600020016000909192909190916101000a81548173ffffffffffffffffffffffffffffffffffffffff021916908373ffffffffffffffffffffffffffffffffffffffff16021790555050601060009054906101000a900473ffffffffffffffffffffffffffffffffffffffff1673ffffffffffffffffffffffffffffffffffffffff1663d8466fe833306000809054906101000a900473ffffffffffffffffffffffffffffffffffffffff16600160026005546007546008546040518963ffffffff1660e01b8152600401808973ffffffffffffffffffffffffffffffffffffffff1673ffffffffffffffffffffffffffffffffffffffff1681526020018873ffffffffffffffffffffffffffffffffffffffff1673ffffffffffffffffffffffffffffffffffffffff1681526020018773ffffffffffffffffffffffffffffffffffffffff1673ffffffffffffffffffffffffffffffffffffffff16815260200180602001806020018681526020018581526020018481526020018381038352888181546001816001161561010002031660029004815260200191508054600181600116156101000203166002900480156114ac5780601f10611481576101008083540402835291602001916114ac565b820191906000526020600020905b81548152906001019060200180831161148f57829003601f168201915b505083810382528781815460018160011615610100020316600290048152602001915080546001816001161561010002031660029004801561152f5780601f106115045761010080835404028352916020019161152f565b820191906000526020600020905b81548152906001019060200180831161151257829003601f168201915b50509a5050505050505050505050600060405180830381600087803b15801561155757600080fd5b505af115801561156b573d6000803e3d6000fd5b505050506011818154811061157c57fe5b90600052602060002090600502016003016000815480929190600190039190505550346006600082825401925050819055503073ffffffffffffffffffffffffffffffffffffffff163160055410156115eb576001600460026101000a81548160ff0219169083151502179055505b5050565b6000809054906101000a900473ffffffffffffffffffffffffffffffffffffffff1673ffffffffffffffffffffffffffffffffffffffff163373ffffffffffffffffffffffffffffffffffffffff161461164857600080fd5b600460019054906101000a900460ff16156116ae576040517f08c379a000000000000000000000000000000000000000000000000000000000815260040180806020018281038252603d815260200180612cf2603d913960400191505060405180910390fd5b600060035490506003600081548092919060010191905055506116cf612ae4565b6040518060a00160405280878152602001868152602001858152602001848152602001838152509050601181908060018154018082558091505090600182039060005260206000209060050201600090919290919091506000820151816000019080519060200190611742929190612b13565b50602082015181600101908051906020019061175f929190612b13565b506040820151816002015560608201518160030155608082015181600401555050507f230c2d3a7c7a9655a76fae6a78de13ae8786a0d4276cfbe0087e53e275c926f58686868686604051808060200180602001868152602001858152602001848152602001838103835288818151815260200191508051906020019080838360005b838110156117fd5780820151818401526020810190506117e2565b50505050905090810190601f16801561182a5780820380516001836020036101000a031916815260200191505b50838103825287818151815260200191508051906020019080838360005b83811015611863578082015181840152602081019050611848565b50505050905090810190601f1680156118905780820380516001836020036101000a031916815260200191505b5097505050505050505060405180910390a1505050505050565b6000600460019054906101000a900460ff166118c9576000905061191c565b4260075411156118f957600460029054906101000a900460ff166118f0576001905061191c565b6002905061191c565b600460029054906101000a900460ff1615611917576003905061191c565b600490505b90565b6000600654905090565b60608060008060008060008060096002015414156119af576040517f08c379a00000000000000000000000000000000000000000000000000000000081526004018080602001828103825260178152602001807f4e6f207265717565737420697320617661696c61626c6500000000000000000081525060200191505060405180910390fd5b60096000016009600101600960020154600960030154600960040154600960050154600960060160009054906101000a900460ff16868054600181600116156101000203166002900480601f016020809104026020016040519081016040528092919081815260200182805460018160011615610100020316600290048015611a795780601f10611a4e57610100808354040283529160200191611a79565b820191906000526020600020905b815481529060010190602001808311611a5c57829003601f168201915b50505050509650858054600181600116156101000203166002900480601f016020809104026020016040519081016040528092919081815260200182805460018160011615610100020316600290048015611b155780601f10611aea57610100808354040283529160200191611b15565b820191906000526020600020905b815481529060010190602001808311611af857829003601f168201915b50505050509550965096509650965096509650965090919293949596565b6000809054906101000a900473ffffffffffffffffffffffffffffffffffffffff1681565b600080601360003373ffffffffffffffffffffffffffffffffffffffff1673ffffffffffffffffffffffffffffffffffffffff168152602001908152602001600020600301541415611bad5760009050611bb2565b600190505b90565b6000601280549050905090565b6000809054906101000a900473ffffffffffffffffffffffffffffffffffffffff1673ffffffffffffffffffffffffffffffffffffffff163373ffffffffffffffffffffffffffffffffffffffff1614611c1b57600080fd5b6001600460016101000a81548160ff021916908315150217905550565b600460029054906101000a900460ff1615611cbb576040517f08c379a000000000000000000000000000000000000000000000000000000000815260040180806020018281038252601c8152602001807f5468652066756e64696e6720676f616c2077617320726561636865640000000081525060200191505060405180910390fd5b6007544211611d15576040517f08c379a0000000000000000000000000000000000000000000000000000000008152600401808060200182810382526023815260200180612c046023913960400191505060405180910390fd5b60008090505b601280549050811015611e5f57600060016013600060128581548110611d3d57fe5b9060005260206000200160009054906101000a900473ffffffffffffffffffffffffffffffffffffffff1673ffffffffffffffffffffffffffffffffffffffff1673ffffffffffffffffffffffffffffffffffffffff16815260200190815260200160002060010154039050600060128381548110611db857fe5b9060005260206000200160009054906101000a900473ffffffffffffffffffffffffffffffffffffffff169050600060118381548110611df457fe5b90600052602060002090600502016002015490508173ffffffffffffffffffffffffffffffffffffffff166108fc829081150290604051600060405180830381858888f19350505050158015611e4e573d6000803e3d6000fd5b505050508080600101915050611d1b565b50565b6000809054906101000a900473ffffffffffffffffffffffffffffffffffffffff1673ffffffffffffffffffffffffffffffffffffffff163373ffffffffffffffffffffffffffffffffffffffff1614611ebb57600080fd5b428211611f30576040517f08c379a000000000000000000000000000000000000000000000000000000000815260040180806020018281038252601d8152602001807f54686520676976656e206461746520697320696e20746865207061737400000081525060200191505060405180910390fd5b6008548210611f8a576040517f08c379a000000000000000000000000000000000000000000000000000000000815260040180806020018281038252602b815260200180612c67602b913960400191505060405180910390fd5b3073ffffffffffffffffffffffffffffffffffffffff163160055410612018576040517f08c379a00000000000000000000000000000000000000000000000000000000081526004018080602001828103825260208152602001807f46756e64696e6720476f616c20776173206e6f7420726561636865642079657481525060200191505060405180910390fd5b426008541161208f576040517f08c379a00000000000000000000000000000000000000000000000000000000081526004018080602001828103825260118152602001807f50726f6a6563742068617320656e64656400000000000000000000000000000081525060200191505060405180910390fd5b600460009054906101000a900460ff161561211f57426009600201541061211e576040517f08c379a000000000000000000000000000000000000000000000000000000000815260040180806020018281038252601f8152602001807f43757272656e742052657175657374206973207374696c6c2076616c6964650081525060200191505060405180910390fd5b5b6001600460006101000a81548160ff0219169083151502179055506040518060e0016040528085815260200184815260200183815260200182815260200160008152602001600081526020016000151581525060096000820151816000019080519060200190612190929190612b13565b5060208201518160010190805190602001906121ad929190612b13565b5060408201518160020155606082015181600301556080820151816004015560a0820151816005015560c08201518160060160006101000a81548160ff02191690831515021790555090505060008090505b6012805490508110156122b4576002601360006012848154811061221f57fe5b9060005260206000200160009054906101000a900473ffffffffffffffffffffffffffffffffffffffff1673ffffffffffffffffffffffffffffffffffffffff1673ffffffffffffffffffffffffffffffffffffffff16815260200190815260200160002060020160006101000a81548160ff021916908360028111156122a257fe5b021790555080806001019150506121ff565b507fb787de1a884559e5259caecc7cd2af3be9a1496a38b192ded8b485ce55f8eff784848484604051808060200180602001858152602001848152602001838103835287818151815260200191508051906020019080838360005b8381101561232a57808201518184015260208101905061230f565b50505050905090810190601f1680156123575780820380516001836020036101000a031916815260200191505b50838103825286818151815260200191508051906020019080838360005b83811015612390578082015181840152602081019050612375565b50505050905090810190601f1680156123bd5780820380516001836020036101000a031916815260200191505b50965050505050505060405180910390a150505050565b60608060008060006011805490508610612456576040517f08c379a000000000000000000000000000000000000000000000000000000000815260040180806020018281038252601a8152602001807f54686520696e646578206973206f7574206f6620626f756e647300000000000081525060200191505060405180910390fd5b6011868154811061246357fe5b90600052602060002090600502016000016011878154811061248157fe5b90600052602060002090600502016001016011888154811061249f57fe5b906000526020600020906005020160020154601189815481106124be57fe5b90600052602060002090600502016003015460118a815481106124dd57fe5b906000526020600020906005020160040154848054600181600116156101000203166002900480601f0160208091040260200160405190810160405280929190818152602001828054600181600116156101000203166002900480156125845780601f1061255957610100808354040283529160200191612584565b820191906000526020600020905b81548152906001019060200180831161256757829003601f168201915b50505050509450838054600181600116156101000203166002900480601f0160208091040260200160405190810160405280929190818152602001828054600181600116156101000203166002900480156126205780601f106125f557610100808354040283529160200191612620565b820191906000526020600020905b81548152906001019060200180831161260357829003601f168201915b505050505093509450945094509450945091939590929450565b600060096002015414156126b6576040517f08c379a00000000000000000000000000000000000000000000000000000000081526004018080602001828103825260168152602001807f4e6f2072657175657374206973206176616961626c650000000000000000000081525060200191505060405180910390fd5b6000601360003373ffffffffffffffffffffffffffffffffffffffff1673ffffffffffffffffffffffffffffffffffffffff16815260200190815260200160002060030154141561276f576040517f08c379a000000000000000000000000000000000000000000000000000000000815260040180806020018281038252601e8152602001807f53656e6465722061646472657373206973206e6f7420696e766573746f72000081525060200191505060405180910390fd5b60028081111561277b57fe5b601360003373ffffffffffffffffffffffffffffffffffffffff1673ffffffffffffffffffffffffffffffffffffffff16815260200190815260200160002060020160009054906101000a900460ff1660028111156127d657fe5b14612849576040517f08c379a000000000000000000000000000000000000000000000000000000000815260040180806020018281038252601a8152602001807f496e766573746f722068617320616c726561647920766f74656400000000000081525060200191505060405180910390fd5b80156128cd576000601360003373ffffffffffffffffffffffffffffffffffffffff1673ffffffffffffffffffffffffffffffffffffffff16815260200190815260200160002060020160006101000a81548160ff021916908360028111156128ae57fe5b0217905550600960040160008154809291906001019190505550612947565b6001601360003373ffffffffffffffffffffffffffffffffffffffff1673ffffffffffffffffffffffffffffffffffffffff16815260200190815260200160002060020160006101000a81548160ff0219169083600281111561292c57fe5b02179055506009600501600081548092919060010191905055505b7f068bc8e6089d752cc958591ecf6c3ed82b329f9fbe2a425d515aeb73ec0ad95e600960040154600960050154604051808381526020018281526020019250505060405180910390a150565b6000809054906101000a900473ffffffffffffffffffffffffffffffffffffffff1673ffffffffffffffffffffffffffffffffffffffff163373ffffffffffffffffffffffffffffffffffffffff16146129ec57600080fd5b600073ffffffffffffffffffffffffffffffffffffffff168173ffffffffffffffffffffffffffffffffffffffff161415612a2657600080fd5b8073ffffffffffffffffffffffffffffffffffffffff166000809054906101000a900473ffffffffffffffffffffffffffffffffffffffff1673ffffffffffffffffffffffffffffffffffffffff167f8be0079c531659141344cd1fd0a4f28419497f9722a3daafe3b4186f6b6457e060405160405180910390a3806000806101000a81548173ffffffffffffffffffffffffffffffffffffffff021916908373ffffffffffffffffffffffffffffffffffffffff16021790555050565b6040518060a0016040528060608152602001606081526020016000815260200160008152602001600081525090565b828054600181600116156101000203166002900490600052602060002090601f016020900481019282601f10612b5457805160ff1916838001178555612b82565b82800160010185558215612b82579182015b82811115612b81578251825591602001919060010190612b66565b5b509050612b8f9190612b93565b5090565b612bb591905b80821115612bb1576000816000905550600101612b99565b5090565b9056fe5468652066756e64696e6720697320636c6f7365642c2064617465206973207265616368656443686f6f73656e204f7074696f6e206973206e6f206c6f6e67657220617661696c61626c655468652066756e64696e6720706572696f6465206973206e6f74206f766572206a657454686520676f616c20776173206e6f74207265616368656420696e2074696d652c207573652072657175657374206120636f6d706c657465207061796261636b5265717565737420646561646c696e6520697320626568696e642070726f6a65637420646561646c696e6554686520616464696e67206261636b696e67206f7074696f6e20706572696f6465206973206e6f74206f7665722079657453656e6420457468657220616d6f756e74206973206e6f7420657175616c20746f206261636b696e6720707269636554686520706572696f6465206f6620616464696e67206261636b696e67206f7074696f6e7320746f2074686520636f6e7472616374206973206f766572a165627a7a72305820903d70f1f834de3ca2ac44fc53ec400cafd95611d044b1b66c977d20708a18d000295468652070726f6a65637420636c6f73696e672064617465206d757373742062652066617274686572207468656e207468652066756e64696e6720636c736f696e672064617465",
  "source": "pragma solidity >=0.4.25 <0.6.0;\n\nimport \"./Ownable.sol\";\nimport \"./ProjectHubContract.sol\";\n\n/**\n * @title ProjectContract\n * @author Nils Kirchhof\n * @notice The ProjectContract is a contract for a specific project, founded by the owner\n * of the contract. Users can invest into the project to become investors. The owner can add\n * new options which tell the user how much ether is needed to become an investor. The owner can\n * make a request to retrive a set amount of ether to use for expenses of the project. The\n * investors can vote on these requests and reject it if they think the reason given is fraudulent.\n */\ncontract ProjectContract is Ownable{\n\n    string projectTitle;\n    string projectDescription;\n    uint backerOptionsID = 1;\n    bool wasFirstRequestGiven = false;\n    bool backingAddingPeriodeIsOver = false;\n    bool fundingGoalWasReached = false;\n    uint fundingGoal;\n    uint maxFunding = 0;\n    uint fundingClosingDate;\n    uint projectClosingDate;\n    Request currentRequest;\n    ProjectHubContract projectHub;\n    BackingOption[] backingOptions;\n    address payable[] investorAddresses;\n    mapping(address => Investor) Investors;\n\n\n    struct BackingOption{\n        string optionTitle;\n        string optionDescription;\n        uint optionAmountEther;\n        int optionAvailability;\n        uint id;\n    }\n\n    struct Request{\n        string requestTitle;\n        string requestDescription;\n        uint valideUntil;\n        uint amount;\n        int numberAcceptedVotes;\n        int numberRejectedVotes;\n        bool wasPayed;\n    }\n\n    struct Investor{\n        address payable investorAddress;\n        uint choosenBackingOptionID;\n        Vote currentVote;\n        int investorExists; //is needed because a mapping contains \"all\" possible keys\n    }\n\n    enum Vote{\n        ACCEPTED,\n        REJECTED,\n        NOVOTEGIVEN\n    }\n\n    enum ContractState{\n        INITIALIZED,\n        ACTIVE,\n        FUNDINGGOALREACHED,\n        DEADLINEREACHED,\n        DEADLINEREACHEDREFUND\n    }\n\n    event VoteGiven(\n        int numberAcceptedVotes,\n        int numberRejectedVotes\n    );\n\n    event CreatedBackingOption(\n        string optionTitle,\n        string optionDescription,\n        uint optionAmountEther,\n        int optionAvailability,\n        uint id\n    );\n\n    event CreatedRequest(\n        string requestTitle,\n        string requestDescription,\n        uint valideUntil,\n        uint amount\n    );\n\n    /**\n    * @notice Contrutor of the new ProjectContract, usually called by the ProjectContractHub. Creates the new ProjectContract\n    * and sets the caller of the addNewProject() function in the ProjectContractHub as the owner of this new ProjectContract.\n    * @param _owner The caller of addNowProject(), which will become the owner of the new ProjectContract\n    * @param _projectTitle The new title for the ProjectContract\n    * @param _projectHub Reference to the ProjectHubContract\n    * @param _fundingGoal Goal in Wei there the funding is reached\n    * @param _fundingCloseDate Date where the funding goal need to be met\n    */\n    constructor(address _owner, string memory _projectTitle, string memory _projectDescription, uint _fundingGoal,\n                uint _fundingCloseDate, uint _projectClosingDate, ProjectHubContract _projectHub) public\n    {\n        require(_fundingCloseDate < _projectClosingDate, \"The project closing date musst be farther then the funding clsoing date\");\n        owner = _owner;\n        projectTitle = _projectTitle;\n        projectDescription = _projectDescription;\n        fundingGoal = _fundingGoal;\n        fundingClosingDate = _fundingCloseDate;\n        projectClosingDate = _projectClosingDate;\n        projectHub = _projectHub;\n    }\n\n    /**\n    * @notice Returns the State of the Contract. The Contract can be in one of five States:\n    * 1. The Contract was initilized and the creator can add backing option -> INITILIZED\n    * 2. The Contract is open and investors can invest. The goal was not reached jet and there is still time to the deadline -> ACTIVE\n    * 3. The funding Goal was reached, but there is still time till the deadline -> FUNDINGGOALREACHED\n    * 4. The deadline has ended and the funding goal was reached -> DEADLINEREACHED\n    * 5. The deadline has ended and the funding goal was not reached -> DEADLINEREACHEDREFUND\n    */\n    function getContractState() public view returns (ContractState)\n    {\n        if(!backingAddingPeriodeIsOver){\n            return ContractState.INITIALIZED;\n        }\n\n        //Deadline noch nicht abeglaufen\n        else if(fundingClosingDate > block.timestamp){\n            if(!fundingGoalWasReached){\n                return ContractState.ACTIVE;\n            }\n            else{\n                return ContractState.FUNDINGGOALREACHED;\n            }\n        }\n\n        //Deadline abgelaufen\n        else{\n            if(fundingGoalWasReached){\n                return ContractState.DEADLINEREACHED;\n            }\n            else{\n                return ContractState.DEADLINEREACHEDREFUND;\n            }\n        }\n    }\n\n    /**\n    * @notice Adds a new backing option to the ProjectContract. This is only possible while the\n    * backing option adding periode is not over, otherwise an exeption is thown. Only callable by the\n    * owner.\n    * @param _optionTitle The title of the new backing option\n    * @param _optionDescription The discription of the new backing option\n    * @param _optionAmountWei The amount of Ether the investor has to pay for this backing option in Wei.\n    * @param _optionAvailability The number of investors who can take this option before it is sold out\n    */\n    function addBackingOption(string memory _optionTitle, string memory _optionDescription,\n    uint _optionAmountWei, int _optionAvailability) public onlyOwner\n    {\n        require(!backingAddingPeriodeIsOver, \"The periode of adding backing options to the contract is over\");\n        uint newBackingOptionID = backerOptionsID;\n        backerOptionsID++;\n        BackingOption memory backingOption = BackingOption(_optionTitle, _optionDescription, _optionAmountWei,\n            _optionAvailability, newBackingOptionID);\n        backingOptions.push(backingOption);\n        emit CreatedBackingOption(\n            _optionTitle,\n            _optionDescription,\n            _optionAmountWei,\n            _optionAvailability,\n            newBackingOptionID\n        );\n    }\n\n    /**\n    * @notice This function closes the backing option adding periode. After is has been closed it can not\n    * be opened again. After the periode was closed, investors are able to invest into the Project Contract.\n    */\n    function closeAddingBackingOptionPeriode() public onlyOwner\n    {\n        backingAddingPeriodeIsOver = true;\n    }\n\n    /**\n    * @notice This function return the number of backing options inside the ProjectContract.\n    * @return Number of backing options inside the ProjectContracts\n    */\n    function getBackingOptionsCount()public view returns (uint){\n        return backingOptions.length;\n    }\n\n    /**\n    * @notice This function returns a specific backing option\n    * given an index. It is used in conjunction with getBackingOptionsCount() to retrive\n    * all avaiable backing options inside ProjectContracs. It throws\n    * exception if the index if larger then the list size.\n    * @param index Index of the backing option\n    * @return Title of the backing option\n    * @return Description of the backing option\n    * @return Price in Wei of the backing option\n    * @return Availability of the backing option\n    * @return ID of the backing option\n    */\n    function getBackingOption(uint index) public view returns(string memory, string memory, uint, int, uint)\n    {\n        require(index < backingOptions.length, \"The index is out of bounds\");\n        return (backingOptions[index].optionTitle, backingOptions[index].optionDescription,\n            backingOptions[index].optionAmountEther, backingOptions[index].optionAvailability,\n            backingOptions[index].id);\n    }\n\n    /**\n    * @notice This function adds a new investor to the ProjectContract. It thows an exeption if the\n    * adding backing options persiode is not over, the specified backing option wasn't found, the\n    * sended ether didn't match the backing options price, the backing option is no longer available or\n    * if the investor has already invested. Otherwise the investor is added and the backing option availablity\n    * is decresed by one. The sended ether amount is added to the contract.\n    * @param backingOptionID ID of the backing option the investor wants to invest in\n    */\n    function addInvestor(uint backingOptionID) public payable\n    {\n        require(backingAddingPeriodeIsOver, \"The adding backing option periode is not over yet\");\n        uint  optionIndex;\n        for (uint i = 0; i<backingOptions.length; i++){\n            if(backingOptions[i].id == backingOptionID){\n                optionIndex = i;\n                break;\n            }\n        }\n\n        require(backingOptions[optionIndex].id != 0, \"BackingOption was not found\");\n\n        require(msg.value == backingOptions[optionIndex].optionAmountEther, \"Send Ether amount is not equal to backing price\");\n\n        require(backingOptions[optionIndex].optionAvailability > 0, \"Choosen Option is no longer available\");\n\n        require(Investors[msg.sender].investorExists == 0, \"Investor has already invested\");\n\n        require(block.timestamp < fundingClosingDate, \"The funding is closed, date is reached\");\n\n        Investors[msg.sender] = Investor(msg.sender, backingOptionID, Vote.NOVOTEGIVEN, 1);\n        investorAddresses.push(msg.sender);\n        projectHub.addProjectToInvestor(msg.sender, address(this), owner, projectTitle, projectDescription, fundingGoal,\n                                            fundingClosingDate, projectClosingDate);\n        backingOptions[optionIndex].optionAvailability--;\n        maxFunding += msg.value;\n        if(fundingGoal < address(this).balance){\n            fundingGoalWasReached = true;\n        }\n    }\n\n\n    /**\n    * @notice This function return the number of investors of the ProjectContract\n    * @return Number of investors\n    */\n    function getInvestorCount() public view returns (uint)\n    {\n        return investorAddresses.length;\n    }\n\n    /**\n    * @notice This function retuns the peek amount of funding that is or was\n    * stored in the contract.\n    * @return Peek funding in the contract\n    */\n    function getPeekBalance() public view returns (uint)\n    {\n        return maxFunding;\n    }\n\n    /**\n    * @notice This function allows the owner of the ProjectContract to add an request for payout. As\n    * long as a request is active, adding new requests throws an exception. The funding Goal needs to\n    * be reached before a request can be requested. _valideUntil musst be in the future, otherwise an\n    * exception is throw.\n    * @param _requestTitle Title of the new request\n    * @param _requestDescription Description of the new request\n    * @param _valideUntil Date till which the request is valide, in seconds since 1970\n    * @param _amountWei The amount the owner requested in Wei\n    */\n    function addRequest(string memory _requestTitle, string memory _requestDescription,\n    uint256 _valideUntil, uint _amountWei) public onlyOwner\n    {\n        require(_valideUntil > block.timestamp, \"The given date is in the past\");\n\n        require(_valideUntil < projectClosingDate, \"Request deadline is behind project deadline\");\n\n        require(fundingGoal < address(this).balance, \"Funding Goal was not reached yet\");\n\n        require(projectClosingDate > block.timestamp, \"Project has ended\");\n\n        if(wasFirstRequestGiven){\n            require(currentRequest.valideUntil < block.timestamp, \"Current Request is still valide\");\n        }\n        wasFirstRequestGiven = true;\n        currentRequest = Request(_requestTitle, _requestDescription, _valideUntil, _amountWei, 0, 0, false);\n        for(uint i = 0; i<investorAddresses.length; i++){\n            Investors[investorAddresses[i]].currentVote = Vote.NOVOTEGIVEN;\n        }\n\n        emit CreatedRequest(\n            _requestTitle,\n            _requestDescription,\n            _valideUntil,\n            _amountWei\n        );\n    }\n\n\n    /**\n    * @notice The function allows the investors to vote on the current request. If the caller of this\n    * function is not an investor or this the caller has already voted, an exception is thrown.\n    * @param isAccepted Bool parameter where true is accpetance and false is rejection of the request\n    */\n    function voteForCurrentRequest(bool isAccepted) public\n    {\n        require(currentRequest.valideUntil != 0, \"No request is avaiable\");\n        \n        require(Investors[msg.sender].investorExists != 0, \"Sender address is not investor\");\n\n        require(Investors[msg.sender].currentVote == Vote.NOVOTEGIVEN, \"Investor has already voted\");\n\n        if(isAccepted){\n            Investors[msg.sender].currentVote = Vote.ACCEPTED;\n            currentRequest.numberAcceptedVotes++;\n        }\n        else{\n            Investors[msg.sender].currentVote = Vote.REJECTED;\n            currentRequest.numberRejectedVotes++;\n        }\n        emit VoteGiven(currentRequest.numberAcceptedVotes, currentRequest.numberRejectedVotes);\n    }\n\n    /**\n    * @notice This function will tell if the investor has voted for the current request.\n    * It returns\n    * 0 (ACCEPTED) if the investor has accepted the current request,\n    * 1 (REJECTED) if the investor has rejected the current request,\n    * 2 (NOVOTEGIVEN) if the investor has not voted jet.\n    */\n    function hasInvestorVotedForCurrentRequest() public view returns (Vote)\n    {\n        return Investors[msg.sender].currentVote;\n    }\n\n    /**\n    * @notice This function return the current request, throws an exception if no\n    * request is currently available, because no request was requested.\n    * @return Title of the request\n    * @return Description of the request\n    * @return Timestamp until the request is valide in seconds since 1970\n    * @return Requested amount of ehter in Wei\n    * @return Number of votes for accept\n    * @return Number of votes for reject\n    * @return Boolean for if the request was payed out\n    */\n    function getCurrentRequest() public view returns (string memory requestTitle, string memory requestDescription, uint256 valideUntil,\n                                                        uint amount, int numberAcceptedVotes, int numberRejectedVotes, bool wasPayed)\n    {\n        require(currentRequest.valideUntil != 0, \"No request is available\");\n\n        return (currentRequest.requestTitle, currentRequest.requestDescription, currentRequest.valideUntil,\n            currentRequest.amount, currentRequest.numberAcceptedVotes, currentRequest.numberRejectedVotes,currentRequest.wasPayed);\n    }\n\n    /**\n    * @notice This function allows the owner to pay out the amount they requested in the request.\n    * If the needed vote where not reached or if the request was already payed out, an exceptin\n    * is thrown.\n    */\n    function requestPayout() public onlyOwner\n    {\n        require(((currentRequest.numberAcceptedVotes) >= int256 (investorAddresses.length / 2)), \"Majority was not reached\");\n\n        require(!currentRequest.wasPayed, \"Request was already payed out\");\n\n        require(projectClosingDate > block.timestamp, \"Project has ended\");\n        \n        msg.sender.transfer(currentRequest.amount);\n        currentRequest.wasPayed = true;\n        wasFirstRequestGiven = false;\n    }\n\n    /**\n    * @notice The function allows the payed in ether to by payed back if the funding goal was\n    * not reached and the funding periode is over. Anyone can trigger this function.\n    */\n    function requestPayback() public\n    {\n        require(!fundingGoalWasReached, \"The funding goal was reached\");\n\n        require(block.timestamp > fundingClosingDate, \"The funding periode is not over jet\");\n\n        for(uint i = 0; i<investorAddresses.length; i++){\n            uint choosenBackingOptionIndex = Investors[investorAddresses[i]].choosenBackingOptionID - 1;\n            address payable investorAddress = investorAddresses[i];\n            uint backingAmount = backingOptions[choosenBackingOptionIndex].optionAmountEther;\n            investorAddress.transfer(backingAmount);\n        }\n\n    }\n\n    /**\n    * @notice This function allows for the payback of the remaining funds on the contract to\n    * the investors after the project has ended. The payback is proprtional to the amount of\n    * ether the investor has paid into the contract.\n    * @dev Since Solidity doesn't suppoert floating numbers, a small error is expected.\n    * The worst case error is 9 Wei, which should be marginal. The precision needed to\n    * minimize the error.\n    */\n    function requestRefundRemainingFunds() public\n    {\n        require(projectClosingDate < block.timestamp, \"Project is not finished jet\");\n        require(fundingGoalWasReached, \"The goal was not reached in time, use request a complete payback\");\n\n        uint remainingFunds = address(this).balance;\n        uint precision = 1;\n        while(remainingFunds / precision != 0){\n            precision = precision * 10;\n        }\n        precision = precision / 10;\n        for(uint i = 0; i<investorAddresses.length; i++){\n            uint choosenBackingOptionIndex = Investors[investorAddresses[i]].choosenBackingOptionID - 1;\n            address payable investorAddress = investorAddresses[i];\n            uint backingAmount = backingOptions[choosenBackingOptionIndex].optionAmountEther;\n            uint percentage = ((backingAmount * precision) / maxFunding);\n            uint paybackAmount = ((remainingFunds / precision) * percentage);\n            investorAddress.transfer(paybackAmount);\n        }\n    }\n\n    /**\n    * @notice Check if caller address is investor in the project\n    * @return Returns true iof caller is investor in project\n    */\n    function isUserInvestor() public view returns (bool)\n    {\n        if(Investors[msg.sender].investorExists == 0){\n            return false;\n        }\n        return true;\n    }\n\n    function () external payable {\n    }\n}\n",
  "sourcePath": "/Users/Nils/Documents/Repos/Blockchain/Contracts/ProjectHubContract/contracts/ProjectContract.sol",
  "compiler": {
    "name": "solc",
    "version": "0.5.8+commit.23d335f2.Emscripten.clang"
  },
  "schemaVersion": "3.0.11",
  "updatedAt": "2019-06-30T15:45:34.920Z",
  "devdoc": {
    "author": "Nils Kirchhof",
    "methods": {
      "addBackingOption(string,string,uint256,int256)": {
        "params": {
          "_optionAmountWei": "The amount of Ether the investor has to pay for this backing option in Wei.",
          "_optionAvailability": "The number of investors who can take this option before it is sold out",
          "_optionDescription": "The discription of the new backing option",
          "_optionTitle": "The title of the new backing option"
        }
      },
      "addInvestor(uint256)": {
        "params": {
          "backingOptionID": "ID of the backing option the investor wants to invest in"
        }
      },
      "addRequest(string,string,uint256,uint256)": {
        "params": {
          "_amountWei": "The amount the owner requested in Wei",
          "_requestDescription": "Description of the new request",
          "_requestTitle": "Title of the new request",
          "_valideUntil": "Date till which the request is valide, in seconds since 1970"
        }
      },
      "constructor": {
        "params": {
          "_fundingCloseDate": "Date where the funding goal need to be met",
          "_fundingGoal": "Goal in Wei there the funding is reached",
          "_owner": "The caller of addNowProject(), which will become the owner of the new ProjectContract",
          "_projectHub": "Reference to the ProjectHubContract",
          "_projectTitle": "The new title for the ProjectContract"
        }
      },
      "getBackingOption(uint256)": {
        "params": {
          "index": "Index of the backing option"
        },
        "return": "Title of the backing optionDescription of the backing optionPrice in Wei of the backing optionAvailability of the backing optionID of the backing option"
      },
      "getBackingOptionsCount()": {
        "return": "Number of backing options inside the ProjectContracts"
      },
      "getCurrentRequest()": {
        "return": "Title of the requestDescription of the requestTimestamp until the request is valide in seconds since 1970Requested amount of ehter in WeiNumber of votes for acceptNumber of votes for rejectBoolean for if the request was payed out"
      },
      "getInvestorCount()": {
        "return": "Number of investors"
      },
      "getPeekBalance()": {
        "return": "Peek funding in the contract"
      },
      "isUserInvestor()": {
        "return": "Returns true iof caller is investor in project"
      },
      "requestRefundRemainingFunds()": {
        "details": "Since Solidity doesn't suppoert floating numbers, a small error is expected. The worst case error is 9 Wei, which should be marginal. The precision needed to minimize the error."
      },
      "transferOwnership(address)": {
        "details": "Allows the current owner to transfer control of the contract to a newOwner.",
        "params": {
          "newOwner": "The address to transfer ownership to."
        }
      },
      "voteForCurrentRequest(bool)": {
        "params": {
          "isAccepted": "Bool parameter where true is accpetance and false is rejection of the request"
        }
      }
    },
    "title": "ProjectContract"
  },
  "userdoc": {
    "methods": {
      "addBackingOption(string,string,uint256,int256)": {
        "notice": "Adds a new backing option to the ProjectContract. This is only possible while the backing option adding periode is not over, otherwise an exeption is thown. Only callable by the owner."
      },
      "addInvestor(uint256)": {
        "notice": "This function adds a new investor to the ProjectContract. It thows an exeption if the adding backing options persiode is not over, the specified backing option wasn't found, the sended ether didn't match the backing options price, the backing option is no longer available or if the investor has already invested. Otherwise the investor is added and the backing option availablity is decresed by one. The sended ether amount is added to the contract."
      },
      "addRequest(string,string,uint256,uint256)": {
        "notice": "This function allows the owner of the ProjectContract to add an request for payout. As long as a request is active, adding new requests throws an exception. The funding Goal needs to be reached before a request can be requested. _valideUntil musst be in the future, otherwise an exception is throw."
      },
      "closeAddingBackingOptionPeriode()": {
        "notice": "This function closes the backing option adding periode. After is has been closed it can not be opened again. After the periode was closed, investors are able to invest into the Project Contract."
      },
      "constructor": "Contrutor of the new ProjectContract, usually called by the ProjectContractHub. Creates the new ProjectContract and sets the caller of the addNewProject() function in the ProjectContractHub as the owner of this new ProjectContract.",
      "getBackingOption(uint256)": {
        "notice": "This function returns a specific backing option given an index. It is used in conjunction with getBackingOptionsCount() to retrive all avaiable backing options inside ProjectContracs. It throws exception if the index if larger then the list size."
      },
      "getBackingOptionsCount()": {
        "notice": "This function return the number of backing options inside the ProjectContract."
      },
      "getContractState()": {
        "notice": "Returns the State of the Contract. The Contract can be in one of five States: 1. The Contract was initilized and the creator can add backing option -> INITILIZED 2. The Contract is open and investors can invest. The goal was not reached jet and there is still time to the deadline -> ACTIVE 3. The funding Goal was reached, but there is still time till the deadline -> FUNDINGGOALREACHED 4. The deadline has ended and the funding goal was reached -> DEADLINEREACHED 5. The deadline has ended and the funding goal was not reached -> DEADLINEREACHEDREFUND"
      },
      "getCurrentRequest()": {
        "notice": "This function return the current request, throws an exception if no request is currently available, because no request was requested."
      },
      "getInvestorCount()": {
        "notice": "This function return the number of investors of the ProjectContract"
      },
      "getPeekBalance()": {
        "notice": "This function retuns the peek amount of funding that is or was stored in the contract."
      },
      "hasInvestorVotedForCurrentRequest()": {
        "notice": "This function will tell if the investor has voted for the current request. It returns 0 (ACCEPTED) if the investor has accepted the current request, 1 (REJECTED) if the investor has rejected the current request, 2 (NOVOTEGIVEN) if the investor has not voted jet."
      },
      "isUserInvestor()": {
        "notice": "Check if caller address is investor in the project"
      },
      "requestPayback()": {
        "notice": "The function allows the payed in ether to by payed back if the funding goal was not reached and the funding periode is over. Anyone can trigger this function."
      },
      "requestPayout()": {
        "notice": "This function allows the owner to pay out the amount they requested in the request. If the needed vote where not reached or if the request was already payed out, an exceptin is thrown."
      },
      "requestRefundRemainingFunds()": {
        "notice": "This function allows for the payback of the remaining funds on the contract to the investors after the project has ended. The payback is proprtional to the amount of ether the investor has paid into the contract."
      },
      "voteForCurrentRequest(bool)": {
        "notice": "The function allows the investors to vote on the current request. If the caller of this function is not an investor or this the caller has already voted, an exception is thrown."
      }
    },
    "notice": "The ProjectContract is a contract for a specific project, founded by the owner of the contract. Users can invest into the project to become investors. The owner can add new options which tell the user how much ether is needed to become an investor. The owner can make a request to retrive a set amount of ether to use for expenses of the project. The investors can vote on these requests and reject it if they think the reason given is fraudulent."
  }
}