{
  "contractName": "ProjectHubContract",
  "abi": [
    {
      "anonymous": false,
      "inputs": [
        {
          "indexed": false,
          "name": "owner",
          "type": "address"
        },
        {
          "indexed": false,
          "name": "projectAdress",
          "type": "address"
        },
        {
          "indexed": false,
          "name": "projectName",
          "type": "string"
        },
        {
          "indexed": false,
          "name": "projectDescription",
          "type": "string"
        },
        {
          "indexed": false,
          "name": "goal",
          "type": "uint256"
        },
        {
          "indexed": false,
          "name": "fundingCloseDate",
          "type": "uint256"
        },
        {
          "indexed": false,
          "name": "projectClosingDate",
          "type": "uint256"
        }
      ],
      "name": "CreatedProject",
      "type": "event"
    },
    {
      "constant": false,
      "inputs": [
        {
          "name": "projectName",
          "type": "string"
        },
        {
          "name": "projectDescription",
          "type": "string"
        },
        {
          "name": "fundingGoal",
          "type": "uint256"
        },
        {
          "name": "fundingCloseDate",
          "type": "uint256"
        },
        {
          "name": "projectClosingDate",
          "type": "uint256"
        }
      ],
      "name": "addNewProject",
      "outputs": [],
      "payable": false,
      "stateMutability": "nonpayable",
      "type": "function"
    },
    {
      "constant": true,
      "inputs": [],
      "name": "getProjectCount",
      "outputs": [
        {
          "name": "",
          "type": "uint256"
        }
      ],
      "payable": false,
      "stateMutability": "view",
      "type": "function"
    },
    {
      "constant": true,
      "inputs": [
        {
          "name": "projectIndex",
          "type": "uint256"
        }
      ],
      "name": "getProjects",
      "outputs": [
        {
          "name": "owner",
          "type": "address"
        },
        {
          "name": "projectAdress",
          "type": "address"
        },
        {
          "name": "projectName",
          "type": "string"
        },
        {
          "name": "projectDescription",
          "type": "string"
        },
        {
          "name": "goal",
          "type": "uint256"
        },
        {
          "name": "fundigCloseDate",
          "type": "uint256"
        },
        {
          "name": "projectClosingDate",
          "type": "uint256"
        }
      ],
      "payable": false,
      "stateMutability": "view",
      "type": "function"
    },
    {
      "constant": true,
      "inputs": [],
      "name": "getProjectCountForFounder",
      "outputs": [
        {
          "name": "",
          "type": "uint256"
        }
      ],
      "payable": false,
      "stateMutability": "view",
      "type": "function"
    },
    {
      "constant": true,
      "inputs": [
        {
          "name": "projectIndex",
          "type": "uint256"
        }
      ],
      "name": "getProjectByFounderForIndex",
      "outputs": [
        {
          "name": "",
          "type": "address"
        },
        {
          "name": "",
          "type": "address"
        },
        {
          "name": "",
          "type": "string"
        },
        {
          "name": "",
          "type": "string"
        },
        {
          "name": "",
          "type": "uint256"
        },
        {
          "name": "",
          "type": "uint256"
        },
        {
          "name": "",
          "type": "uint256"
        }
      ],
      "payable": false,
      "stateMutability": "view",
      "type": "function"
    },
    {
      "constant": true,
      "inputs": [],
      "name": "getProjectCountForInvestor",
      "outputs": [
        {
          "name": "",
          "type": "uint256"
        }
      ],
      "payable": false,
      "stateMutability": "view",
      "type": "function"
    },
    {
      "constant": true,
      "inputs": [
        {
          "name": "projectIndex",
          "type": "uint256"
        }
      ],
      "name": "getProjectByInvestorForIndex",
      "outputs": [
        {
          "name": "",
          "type": "address"
        },
        {
          "name": "",
          "type": "address"
        },
        {
          "name": "",
          "type": "string"
        },
        {
          "name": "",
          "type": "string"
        },
        {
          "name": "",
          "type": "uint256"
        },
        {
          "name": "",
          "type": "uint256"
        },
        {
          "name": "",
          "type": "uint256"
        }
      ],
      "payable": false,
      "stateMutability": "view",
      "type": "function"
    },
    {
      "constant": false,
      "inputs": [
        {
          "name": "investor",
          "type": "address"
        },
        {
          "name": "_projectAddress",
          "type": "address"
        },
        {
          "name": "_owner",
          "type": "address"
        },
        {
          "name": "_projectName",
          "type": "string"
        },
        {
          "name": "_projectDescription",
          "type": "string"
        },
        {
          "name": "_goal",
          "type": "uint256"
        },
        {
          "name": "_fundingCloseDate",
          "type": "uint256"
        },
        {
          "name": "_projectClosingDate",
          "type": "uint256"
        }
      ],
      "name": "addProjectToInvestor",
      "outputs": [],
      "payable": false,
      "stateMutability": "nonpayable",
      "type": "function"
    }
  ],
  "bytecode": "0x608060405234801561001057600080fd5b506150de806100206000396000f3fe60806040526004361062000097576000357c0100000000000000000000000000000000000000000000000000000000900463ffffffff16806320628b48146200009c5780633bcff3b0146200024157806382508b15146200026f57806391c87fe1146200029d5780639a36a3941462000442578063c5cdce0f1462000470578063d8466fe81462000615578063e2ede77914620007fd575b600080fd5b348015620000a957600080fd5b50620000d960048036036020811015620000c257600080fd5b810190808035906020019092919050505062000984565b604051808873ffffffffffffffffffffffffffffffffffffffff1673ffffffffffffffffffffffffffffffffffffffff1681526020018773ffffffffffffffffffffffffffffffffffffffff1673ffffffffffffffffffffffffffffffffffffffff1681526020018060200180602001868152602001858152602001848152602001838103835288818151815260200191508051906020019080838360005b838110156200019557808201518184015260208101905062000178565b50505050905090810190601f168015620001c35780820380516001836020036101000a031916815260200191505b50838103825287818151815260200191508051906020019080838360005b83811015620001fe578082015181840152602081019050620001e1565b50505050905090810190601f1680156200022c5780820380516001836020036101000a031916815260200191505b50995050505050505050505060405180910390f35b3480156200024e57600080fd5b506200025962000c90565b6040518082815260200191505060405180910390f35b3480156200027c57600080fd5b506200028762000c9c565b6040518082815260200191505060405180910390f35b348015620002aa57600080fd5b50620002da60048036036020811015620002c357600080fd5b810190808035906020019092919050505062000ce6565b604051808873ffffffffffffffffffffffffffffffffffffffff1673ffffffffffffffffffffffffffffffffffffffff1681526020018773ffffffffffffffffffffffffffffffffffffffff1673ffffffffffffffffffffffffffffffffffffffff1681526020018060200180602001868152602001858152602001848152602001838103835288818151815260200191508051906020019080838360005b838110156200039657808201518184015260208101905062000379565b50505050905090810190601f168015620003c45780820380516001836020036101000a031916815260200191505b50838103825287818151815260200191508051906020019080838360005b83811015620003ff578082015181840152602081019050620003e2565b50505050905090810190601f1680156200042d5780820380516001836020036101000a031916815260200191505b50995050505050505050505060405180910390f35b3480156200044f57600080fd5b506200045a620011de565b6040518082815260200191505060405180910390f35b3480156200047d57600080fd5b50620004ad600480360360208110156200049657600080fd5b810190808035906020019092919050505062001228565b604051808873ffffffffffffffffffffffffffffffffffffffff1673ffffffffffffffffffffffffffffffffffffffff1681526020018773ffffffffffffffffffffffffffffffffffffffff1673ffffffffffffffffffffffffffffffffffffffff1681526020018060200180602001868152602001858152602001848152602001838103835288818151815260200191508051906020019080838360005b83811015620005695780820151818401526020810190506200054c565b50505050905090810190601f168015620005975780820380516001836020036101000a031916815260200191505b50838103825287818151815260200191508051906020019080838360005b83811015620005d2578082015181840152602081019050620005b5565b50505050905090810190601f168015620006005780820380516001836020036101000a031916815260200191505b50995050505050505050505060405180910390f35b3480156200062257600080fd5b50620007fb60048036036101008110156200063c57600080fd5b81019080803573ffffffffffffffffffffffffffffffffffffffff169060200190929190803573ffffffffffffffffffffffffffffffffffffffff169060200190929190803573ffffffffffffffffffffffffffffffffffffffff16906020019092919080359060200190640100000000811115620006ba57600080fd5b820183602082011115620006cd57600080fd5b80359060200191846001830284011164010000000083111715620006f057600080fd5b91908080601f016020809104026020016040519081016040528093929190818152602001838380828437600081840152601f19601f820116905080830192505050505050509192919290803590602001906401000000008111156200075457600080fd5b8201836020820111156200076757600080fd5b803590602001918460018302840111640100000000831117156200078a57600080fd5b91908080601f016020809104026020016040519081016040528093929190818152602001838380828437600081840152601f19601f82011690508083019250505050505050919291929080359060200190929190803590602001909291908035906020019092919050505062001720565b005b3480156200080a57600080fd5b5062000982600480360360a08110156200082357600080fd5b81019080803590602001906401000000008111156200084157600080fd5b8201836020820111156200085457600080fd5b803590602001918460018302840111640100000000831117156200087757600080fd5b91908080601f016020809104026020016040519081016040528093929190818152602001838380828437600081840152601f19601f82011690508083019250505050505050919291929080359060200190640100000000811115620008db57600080fd5b820183602082011115620008ee57600080fd5b803590602001918460018302840111640100000000831117156200091157600080fd5b91908080601f016020809104026020016040519081016040528093929190818152602001838380828437600081840152601f19601f820116905080830192505050505050509192919290803590602001909291908035906020019092919080359060200190929190505050620018e1565b005b600080606080600080600080805490508810151562000a0b576040517f08c379a00000000000000000000000000000000000000000000000000000000081526004018080602001828103825260168152602001807f496e646578206973206f7574206f6620626f756e64730000000000000000000081525060200191505060405180910390fd5b60008881548110151562000a1b57fe5b906000526020600020906007020160000160009054906101000a900473ffffffffffffffffffffffffffffffffffffffff1660008981548110151562000a5d57fe5b906000526020600020906007020160010160009054906101000a900473ffffffffffffffffffffffffffffffffffffffff1660008a81548110151562000a9f57fe5b906000526020600020906007020160020160008b81548110151562000ac057fe5b906000526020600020906007020160030160008c81548110151562000ae157fe5b90600052602060002090600702016004015460008d81548110151562000b0357fe5b90600052602060002090600702016005015460008e81548110151562000b2557fe5b906000526020600020906007020160060154848054600181600116156101000203166002900480601f01602080910402602001604051908101604052809291908181526020018280546001816001161561010002031660029004801562000bd05780601f1062000ba45761010080835404028352916020019162000bd0565b820191906000526020600020905b81548152906001019060200180831162000bb257829003601f168201915b50505050509450838054600181600116156101000203166002900480601f01602080910402602001604051908101604052809291908181526020018280546001816001161561010002031660029004801562000c705780601f1062000c445761010080835404028352916020019162000c70565b820191906000526020600020905b81548152906001019060200180831162000c5257829003601f168201915b505050505093509650965096509650965096509650919395979092949650565b60008080549050905090565b6000600260003373ffffffffffffffffffffffffffffffffffffffff1673ffffffffffffffffffffffffffffffffffffffff16815260200190815260200160002080549050905090565b6000806060806000806000600260003373ffffffffffffffffffffffffffffffffffffffff1673ffffffffffffffffffffffffffffffffffffffff168152602001908152602001600020805490508810151562000dab576040517f08c379a00000000000000000000000000000000000000000000000000000000081526004018080602001828103825260168152602001807f496e646578206973206f7574206f6620626f756e64730000000000000000000081525060200191505060405180910390fd5b600260003373ffffffffffffffffffffffffffffffffffffffff1673ffffffffffffffffffffffffffffffffffffffff1681526020019081526020016000208881548110151562000df857fe5b906000526020600020906007020160000160009054906101000a900473ffffffffffffffffffffffffffffffffffffffff16600260003373ffffffffffffffffffffffffffffffffffffffff1673ffffffffffffffffffffffffffffffffffffffff1681526020019081526020016000208981548110151562000e7757fe5b906000526020600020906007020160010160009054906101000a900473ffffffffffffffffffffffffffffffffffffffff16600260003373ffffffffffffffffffffffffffffffffffffffff1673ffffffffffffffffffffffffffffffffffffffff1681526020019081526020016000208a81548110151562000ef657fe5b9060005260206000209060070201600201600260003373ffffffffffffffffffffffffffffffffffffffff1673ffffffffffffffffffffffffffffffffffffffff1681526020019081526020016000208b81548110151562000f5457fe5b9060005260206000209060070201600301600260003373ffffffffffffffffffffffffffffffffffffffff1673ffffffffffffffffffffffffffffffffffffffff1681526020019081526020016000208c81548110151562000fb257fe5b906000526020600020906007020160040154600260003373ffffffffffffffffffffffffffffffffffffffff1673ffffffffffffffffffffffffffffffffffffffff1681526020019081526020016000208d8154811015156200101157fe5b906000526020600020906007020160050154600260003373ffffffffffffffffffffffffffffffffffffffff1673ffffffffffffffffffffffffffffffffffffffff1681526020019081526020016000208e8154811015156200107057fe5b906000526020600020906007020160060154859550848054600181600116156101000203166002900480601f0160208091040260200160405190810160405280929190818152602001828054600181600116156101000203166002900480156200111e5780601f10620010f2576101008083540402835291602001916200111e565b820191906000526020600020905b8154815290600101906020018083116200110057829003601f168201915b50505050509450838054600181600116156101000203166002900480601f016020809104026020016040519081016040528092919081815260200182805460018160011615610100020316600290048015620011be5780601f106200119257610100808354040283529160200191620011be565b820191906000526020600020905b815481529060010190602001808311620011a057829003601f168201915b505050505093509650965096509650965096509650919395979092949650565b6000600160003373ffffffffffffffffffffffffffffffffffffffff1673ffffffffffffffffffffffffffffffffffffffff16815260200190815260200160002080549050905090565b6000806060806000806000600160003373ffffffffffffffffffffffffffffffffffffffff1673ffffffffffffffffffffffffffffffffffffffff1681526020019081526020016000208054905088101515620012ed576040517f08c379a00000000000000000000000000000000000000000000000000000000081526004018080602001828103825260168152602001807f496e646578206973206f7574206f6620626f756e64730000000000000000000081525060200191505060405180910390fd5b600160003373ffffffffffffffffffffffffffffffffffffffff1673ffffffffffffffffffffffffffffffffffffffff168152602001908152602001600020888154811015156200133a57fe5b906000526020600020906007020160000160009054906101000a900473ffffffffffffffffffffffffffffffffffffffff16600160003373ffffffffffffffffffffffffffffffffffffffff1673ffffffffffffffffffffffffffffffffffffffff16815260200190815260200160002089815481101515620013b957fe5b906000526020600020906007020160010160009054906101000a900473ffffffffffffffffffffffffffffffffffffffff16600160003373ffffffffffffffffffffffffffffffffffffffff1673ffffffffffffffffffffffffffffffffffffffff1681526020019081526020016000208a8154811015156200143857fe5b9060005260206000209060070201600201600160003373ffffffffffffffffffffffffffffffffffffffff1673ffffffffffffffffffffffffffffffffffffffff1681526020019081526020016000208b8154811015156200149657fe5b9060005260206000209060070201600301600160003373ffffffffffffffffffffffffffffffffffffffff1673ffffffffffffffffffffffffffffffffffffffff1681526020019081526020016000208c815481101515620014f457fe5b906000526020600020906007020160040154600160003373ffffffffffffffffffffffffffffffffffffffff1673ffffffffffffffffffffffffffffffffffffffff1681526020019081526020016000208d8154811015156200155357fe5b906000526020600020906007020160050154600160003373ffffffffffffffffffffffffffffffffffffffff1673ffffffffffffffffffffffffffffffffffffffff1681526020019081526020016000208e815481101515620015b257fe5b906000526020600020906007020160060154859550848054600181600116156101000203166002900480601f016020809104026020016040519081016040528092919081815260200182805460018160011615610100020316600290048015620016605780601f10620016345761010080835404028352916020019162001660565b820191906000526020600020905b8154815290600101906020018083116200164257829003601f168201915b50505050509450838054600181600116156101000203166002900480601f016020809104026020016040519081016040528092919081815260200182805460018160011615610100020316600290048015620017005780601f10620016d45761010080835404028352916020019162001700565b820191906000526020600020905b815481529060010190602001808311620016e257829003601f168201915b505050505093509650965096509650965096509650919395979092949650565b600260008973ffffffffffffffffffffffffffffffffffffffff1673ffffffffffffffffffffffffffffffffffffffff16815260200190815260200160002060e0604051908101604052808873ffffffffffffffffffffffffffffffffffffffff1681526020018973ffffffffffffffffffffffffffffffffffffffff168152602001878152602001868152602001858152602001848152602001838152509080600181540180825580915050906001820390600052602060002090600702016000909192909190915060008201518160000160006101000a81548173ffffffffffffffffffffffffffffffffffffffff021916908373ffffffffffffffffffffffffffffffffffffffff16021790555060208201518160010160006101000a81548173ffffffffffffffffffffffffffffffffffffffff021916908373ffffffffffffffffffffffffffffffffffffffff16021790555060408201518160020190805190602001906200189692919062001f5f565b506060820151816003019080519060200190620018b592919062001f5f565b506080820151816004015560a0820151816005015560c082015181600601555050505050505050505050565b428211151562001959576040517f08c379a000000000000000000000000000000000000000000000000000000000815260040180806020018281038252601d8152602001807f54686520676976656e206461746520697320696e20746865207061737400000081525060200191505060405180910390fd5b6000338686868686306200196c62001fe6565b808873ffffffffffffffffffffffffffffffffffffffff1673ffffffffffffffffffffffffffffffffffffffff16815260200180602001806020018781526020018681526020018581526020018473ffffffffffffffffffffffffffffffffffffffff1673ffffffffffffffffffffffffffffffffffffffff168152602001838103835289818151815260200191508051906020019080838360005b8381101562001a2557808201518184015260208101905062001a08565b50505050905090810190601f16801562001a535780820380516001836020036101000a031916815260200191505b50838103825288818151815260200191508051906020019080838360005b8381101562001a8e57808201518184015260208101905062001a71565b50505050905090810190601f16801562001abc5780820380516001836020036101000a031916815260200191505b509950505050505050505050604051809103906000f08015801562001ae5573d6000803e3d6000fd5b50905062001af262001ff7565b60e0604051908101604052803373ffffffffffffffffffffffffffffffffffffffff1681526020018373ffffffffffffffffffffffffffffffffffffffff1681526020018881526020018781526020018681526020018581526020018481525090506000819080600181540180825580915050906001820390600052602060002090600702016000909192909190915060008201518160000160006101000a81548173ffffffffffffffffffffffffffffffffffffffff021916908373ffffffffffffffffffffffffffffffffffffffff16021790555060208201518160010160006101000a81548173ffffffffffffffffffffffffffffffffffffffff021916908373ffffffffffffffffffffffffffffffffffffffff160217905550604082015181600201908051906020019062001c2e92919062001f5f565b50606082015181600301908051906020019062001c4d92919062001f5f565b506080820151816004015560a0820151816005015560c08201518160060155505050600160003373ffffffffffffffffffffffffffffffffffffffff1673ffffffffffffffffffffffffffffffffffffffff168152602001908152602001600020819080600181540180825580915050906001820390600052602060002090600702016000909192909190915060008201518160000160006101000a81548173ffffffffffffffffffffffffffffffffffffffff021916908373ffffffffffffffffffffffffffffffffffffffff16021790555060208201518160010160006101000a81548173ffffffffffffffffffffffffffffffffffffffff021916908373ffffffffffffffffffffffffffffffffffffffff160217905550604082015181600201908051906020019062001d8692919062001f5f565b50606082015181600301908051906020019062001da592919062001f5f565b506080820151816004015560a0820151816005015560c082015181600601555050507f0bd0a230aac1f5df1bf2b4a33a62f76507fc7e0e2fa87a01e014a25eb0ccea4633838989898989604051808873ffffffffffffffffffffffffffffffffffffffff1673ffffffffffffffffffffffffffffffffffffffff1681526020018773ffffffffffffffffffffffffffffffffffffffff1673ffffffffffffffffffffffffffffffffffffffff1681526020018060200180602001868152602001858152602001848152602001838103835288818151815260200191508051906020019080838360005b8381101562001eab57808201518184015260208101905062001e8e565b50505050905090810190601f16801562001ed95780820380516001836020036101000a031916815260200191505b50838103825287818151815260200191508051906020019080838360005b8381101562001f1457808201518184015260208101905062001ef7565b50505050905090810190601f16801562001f425780820380516001836020036101000a031916815260200191505b50995050505050505050505060405180910390a150505050505050565b828054600181600116156101000203166002900490600052602060002090601f016020900481019282601f1062001fa257805160ff191683800117855562001fd3565b8280016001018555821562001fd3579182015b8281111562001fd257825182559160200191906001019062001fb5565b5b50905062001fe2919062002061565b5090565b604051613029806200208a83390190565b60e060405190810160405280600073ffffffffffffffffffffffffffffffffffffffff168152602001600073ffffffffffffffffffffffffffffffffffffffff16815260200160608152602001606081526020016000815260200160008152602001600081525090565b6200208691905b808211156200208257600081600090555060010162002068565b5090565b9056fe608060405260016003556000600460006101000a81548160ff0219169083151502179055506000600460016101000a81548160ff0219169083151502179055506000600460026101000a81548160ff0219169083151502179055503480156200006757600080fd5b506040516200302938038062003029833981018060405260e08110156200008d57600080fd5b81019080805190602001909291908051640100000000811115620000b057600080fd5b82810190506020810184811115620000c757600080fd5b8151856001820283011164010000000082111715620000e557600080fd5b505092919060200180516401000000008111156200010257600080fd5b828101905060208101848111156200011957600080fd5b81518560018202830111640100000000821117156200013757600080fd5b505092919060200180519060200190929190805190602001909291908051906020019092919080519060200190929190505050336000806101000a81548173ffffffffffffffffffffffffffffffffffffffff021916908373ffffffffffffffffffffffffffffffffffffffff16021790555081831015156200026e576040517f08c379a00000000000000000000000000000000000000000000000000000000081526004018080602001828103825260478152602001807f5468652070726f6a65637420636c6f73696e672064617465206d75737374206281526020017f652066617274686572207468656e207468652066756e64696e6720636c736f6981526020017f6e6720646174650000000000000000000000000000000000000000000000000081525060600191505060405180910390fd5b866000806101000a81548173ffffffffffffffffffffffffffffffffffffffff021916908373ffffffffffffffffffffffffffffffffffffffff1602179055508560019080519060200190620002c692919062000343565b508460029080519060200190620002df92919062000343565b5083600581905550826007819055508160088190555080601060006101000a81548173ffffffffffffffffffffffffffffffffffffffff021916908373ffffffffffffffffffffffffffffffffffffffff16021790555050505050505050620003f2565b828054600181600116156101000203166002900490600052602060002090601f016020900481019282601f106200038657805160ff1916838001178555620003b7565b82800160010185558215620003b7579182015b82811115620003b657825182559160200191906001019062000399565b5b509050620003c69190620003ca565b5090565b620003ef91905b80821115620003eb576000816000905550600101620003d1565b5090565b90565b612c2780620004026000396000f3fe6080604052600436106100db576000357c0100000000000000000000000000000000000000000000000000000000900463ffffffff1680634557e681146100dd5780635e8f8993146100f457806365058f4c1461011f5780637ebf6830146101365780637f0fcd61146101645780637f4e4849146102d75780638cea183b146103105780638da5cb5b14610433578063960524e31461048a578063a8e3e9dc146104b5578063b40303d8146104cc578063bed50bd3146104e3578063d9ad9a1a14610656578063ec912d7b1461078b578063f2fde38b146107c8575b005b3480156100e957600080fd5b506100f2610819565b005b34801561010057600080fd5b50610109610ac7565b6040518082815260200191505060405180910390f35b34801561012b57600080fd5b50610134610ad4565b005b6101626004803603602081101561014c57600080fd5b8101908080359060200190929190505050610d44565b005b34801561017057600080fd5b506102d56004803603608081101561018757600080fd5b81019080803590602001906401000000008111156101a457600080fd5b8201836020820111156101b657600080fd5b803590602001918460018302840111640100000000831117156101d857600080fd5b91908080601f016020809104026020016040519081016040528093929190818152602001838380828437600081840152601f19601f8201169050808301925050505050505091929192908035906020019064010000000081111561023b57600080fd5b82018360208201111561024d57600080fd5b8035906020019184600183028401116401000000008311171561026f57600080fd5b91908080601f016020809104026020016040519081016040528093929190818152602001838380828437600081840152601f19601f8201169050808301925050505050505091929192908035906020019092919080359060200190929190505050611632565b005b3480156102e357600080fd5b506102ec611935565b604051808260048111156102fc57fe5b60ff16815260200191505060405180910390f35b34801561031c57600080fd5b506103256119ae565b6040518080602001806020018881526020018781526020018681526020018581526020018415151515815260200183810383528a818151815260200191508051906020019080838360005b8381101561038b578082015181840152602081019050610370565b50505050905090810190601f1680156103b85780820380516001836020036101000a031916815260200191505b50838103825289818151815260200191508051906020019080838360005b838110156103f15780820151818401526020810190506103d6565b50505050905090810190601f16801561041e5780820380516001836020036101000a031916815260200191505b50995050505050505050505060405180910390f35b34801561043f57600080fd5b50610448611bba565b604051808273ffffffffffffffffffffffffffffffffffffffff1673ffffffffffffffffffffffffffffffffffffffff16815260200191505060405180910390f35b34801561049657600080fd5b5061049f611bdf565b6040518082815260200191505060405180910390f35b3480156104c157600080fd5b506104ca611bec565b005b3480156104d857600080fd5b506104e1611c64565b005b3480156104ef57600080fd5b506106546004803603608081101561050657600080fd5b810190808035906020019064010000000081111561052357600080fd5b82018360208201111561053557600080fd5b8035906020019184600183028401116401000000008311171561055757600080fd5b91908080601f016020809104026020016040519081016040528093929190818152602001838380828437600081840152601f19601f820116905080830192505050505050509192919290803590602001906401000000008111156105ba57600080fd5b8201836020820111156105cc57600080fd5b803590602001918460018302840111640100000000831117156105ee57600080fd5b91908080601f016020809104026020016040519081016040528093929190818152602001838380828437600081840152601f19601f8201169050808301925050505050505091929192908035906020019092919080359060200190929190505050611edb565b005b34801561066257600080fd5b5061068f6004803603602081101561067957600080fd5b8101908080359060200190929190505050612400565b604051808060200180602001868152602001858152602001848152602001838103835288818151815260200191508051906020019080838360005b838110156106e55780820151818401526020810190506106ca565b50505050905090810190601f1680156107125780820380516001836020036101000a031916815260200191505b50838103825287818151815260200191508051906020019080838360005b8381101561074b578082015181840152602081019050610730565b50505050905090810190601f1680156107785780820380516001836020036101000a031916815260200191505b5097505050505050505060405180910390f35b34801561079757600080fd5b506107c6600480360360208110156107ae57600080fd5b81019080803515159060200190929190505050612672565b005b3480156107d457600080fd5b50610817600480360360208110156107eb57600080fd5b81019080803573ffffffffffffffffffffffffffffffffffffffff1690602001909291905050506129d1565b005b42600854101515610892576040517f08c379a000000000000000000000000000000000000000000000000000000000815260040180806020018281038252601b8152602001807f50726f6a656374206973206e6f742066696e6973686564206a6574000000000081525060200191505060405180910390fd5b600460029054906101000a900460ff16151561093c576040517f08c379a00000000000000000000000000000000000000000000000000000000081526004018080602001828103825260408152602001807f54686520676f616c20776173206e6f74207265616368656420696e2074696d6581526020017f2c207573652072657175657374206120636f6d706c657465207061796261636b81525060400191505060405180910390fd5b60003073ffffffffffffffffffffffffffffffffffffffff1631905060008090505b601280549050811015610ac357600060016013600060128581548110151561098257fe5b9060005260206000200160009054906101000a900473ffffffffffffffffffffffffffffffffffffffff1673ffffffffffffffffffffffffffffffffffffffff1673ffffffffffffffffffffffffffffffffffffffff1681526020019081526020016000206001015403905060006012838154811015156109ff57fe5b9060005260206000200160009054906101000a900473ffffffffffffffffffffffffffffffffffffffff1690506000601183815481101515610a3d57fe5b9060005260206000209060050201600201549050600060065482811515610a6057fe5b049050600086820290508373ffffffffffffffffffffffffffffffffffffffff166108fc829081150290604051600060405180830381858888f19350505050158015610ab0573d6000803e3d6000fd5b505050505050808060010191505061095e565b5050565b6000601180549050905090565b6000809054906101000a900473ffffffffffffffffffffffffffffffffffffffff1673ffffffffffffffffffffffffffffffffffffffff163373ffffffffffffffffffffffffffffffffffffffff16141515610b2f57600080fd5b6002601280549050811515610b4057fe5b04600960040154131515610bbc576040517f08c379a00000000000000000000000000000000000000000000000000000000081526004018080602001828103825260188152602001807f4d616a6f7269747920776173206e6f742072656163686564000000000000000081525060200191505060405180910390fd5b600960060160009054906101000a900460ff16151515610c44576040517f08c379a000000000000000000000000000000000000000000000000000000000815260040180806020018281038252601d8152602001807f526571756573742077617320616c7265616479207061796564206f757400000081525060200191505060405180910390fd5b42600854111515610cbd576040517f08c379a00000000000000000000000000000000000000000000000000000000081526004018080602001828103825260118152602001807f50726f6a6563742068617320656e64656400000000000000000000000000000081525060200191505060405180910390fd5b3373ffffffffffffffffffffffffffffffffffffffff166108fc6009600301549081150290604051600060405180830381858888f19350505050158015610d08573d6000803e3d6000fd5b506001600960060160006101000a81548160ff0219169083151502179055506000600460006101000a81548160ff021916908315150217905550565b600460019054906101000a900460ff161515610dee576040517f08c379a00000000000000000000000000000000000000000000000000000000081526004018080602001828103825260318152602001807f54686520616464696e67206261636b696e67206f7074696f6e20706572696f6481526020017f65206973206e6f74206f7665722079657400000000000000000000000000000081525060400191505060405180910390fd5b600080600090505b601180549050811015610e405782601182815481101515610e1357fe5b9060005260206000209060050201600401541415610e3357809150610e40565b8080600101915050610df6565b506000601182815481101515610e5257fe5b90600052602060002090600502016004015414151515610eda576040517f08c379a000000000000000000000000000000000000000000000000000000000815260040180806020018281038252601b8152602001807f4261636b696e674f7074696f6e20776173206e6f7420666f756e64000000000081525060200191505060405180910390fd5b601181815481101515610ee957fe5b90600052602060002090600502016002015434141515610f97576040517f08c379a000000000000000000000000000000000000000000000000000000000815260040180806020018281038252602f8152602001807f53656e6420457468657220616d6f756e74206973206e6f7420657175616c207481526020017f6f206261636b696e67207072696365000000000000000000000000000000000081525060400191505060405180910390fd5b6000601182815481101515610fa857fe5b906000526020600020906005020160030154131515611055576040517f08c379a00000000000000000000000000000000000000000000000000000000081526004018080602001828103825260258152602001807f43686f6f73656e204f7074696f6e206973206e6f206c6f6e676572206176616981526020017f6c61626c6500000000000000000000000000000000000000000000000000000081525060400191505060405180910390fd5b6000601360003373ffffffffffffffffffffffffffffffffffffffff1673ffffffffffffffffffffffffffffffffffffffff1681526020019081526020016000206003015414151561110f576040517f08c379a000000000000000000000000000000000000000000000000000000000815260040180806020018281038252601d8152602001807f496e766573746f722068617320616c726561647920696e76657374656400000081525060200191505060405180910390fd5b600754421015156111ae576040517f08c379a00000000000000000000000000000000000000000000000000000000081526004018080602001828103825260268152602001807f5468652066756e64696e6720697320636c6f7365642c2064617465206973207281526020017f656163686564000000000000000000000000000000000000000000000000000081525060400191505060405180910390fd5b6080604051908101604052803373ffffffffffffffffffffffffffffffffffffffff1681526020018381526020016002808111156111e857fe5b81526020016001815250601360003373ffffffffffffffffffffffffffffffffffffffff1673ffffffffffffffffffffffffffffffffffffffff16815260200190815260200160002060008201518160000160006101000a81548173ffffffffffffffffffffffffffffffffffffffff021916908373ffffffffffffffffffffffffffffffffffffffff1602179055506020820151816001015560408201518160020160006101000a81548160ff021916908360028111156112a657fe5b02179055506060820151816003015590505060123390806001815401808255809150509060018203906000526020600020016000909192909190916101000a81548173ffffffffffffffffffffffffffffffffffffffff021916908373ffffffffffffffffffffffffffffffffffffffff16021790555050601060009054906101000a900473ffffffffffffffffffffffffffffffffffffffff1673ffffffffffffffffffffffffffffffffffffffff1663d8466fe833306000809054906101000a900473ffffffffffffffffffffffffffffffffffffffff16600160026005546007546008546040518963ffffffff167c0100000000000000000000000000000000000000000000000000000000028152600401808973ffffffffffffffffffffffffffffffffffffffff1673ffffffffffffffffffffffffffffffffffffffff1681526020018873ffffffffffffffffffffffffffffffffffffffff1673ffffffffffffffffffffffffffffffffffffffff1681526020018773ffffffffffffffffffffffffffffffffffffffff1673ffffffffffffffffffffffffffffffffffffffff16815260200180602001806020018681526020018581526020018481526020018381038352888181546001816001161561010002031660029004815260200191508054600181600116156101000203166002900480156114ed5780601f106114c2576101008083540402835291602001916114ed565b820191906000526020600020905b8154815290600101906020018083116114d057829003601f168201915b50508381038252878181546001816001161561010002031660029004815260200191508054600181600116156101000203166002900480156115705780601f1061154557610100808354040283529160200191611570565b820191906000526020600020905b81548152906001019060200180831161155357829003601f168201915b50509a5050505050505050505050600060405180830381600087803b15801561159857600080fd5b505af11580156115ac573d6000803e3d6000fd5b505050506011818154811015156115bf57fe5b90600052602060002090600502016003016000815480929190600190039190505550346006600082825401925050819055503073ffffffffffffffffffffffffffffffffffffffff1631600554101561162e576001600460026101000a81548160ff0219169083151502179055505b5050565b6000809054906101000a900473ffffffffffffffffffffffffffffffffffffffff1673ffffffffffffffffffffffffffffffffffffffff163373ffffffffffffffffffffffffffffffffffffffff1614151561168d57600080fd5b600460019054906101000a900460ff16151515611738576040517f08c379a000000000000000000000000000000000000000000000000000000000815260040180806020018281038252603d8152602001807f54686520706572696f6465206f6620616464696e67206261636b696e67206f7081526020017f74696f6e7320746f2074686520636f6e7472616374206973206f76657200000081525060400191505060405180910390fd5b60006003549050600360008154809291906001019190505550611759612b26565b60a0604051908101604052808781526020018681526020018581526020018481526020018381525090506011819080600181540180825580915050906001820390600052602060002090600502016000909192909190915060008201518160000190805190602001906117cd929190612b56565b5060208201518160010190805190602001906117ea929190612b56565b506040820151816002015560608201518160030155608082015181600401555050507f230c2d3a7c7a9655a76fae6a78de13ae8786a0d4276cfbe0087e53e275c926f58686868686604051808060200180602001868152602001858152602001848152602001838103835288818151815260200191508051906020019080838360005b8381101561188857808201518184015260208101905061186d565b50505050905090810190601f1680156118b55780820380516001836020036101000a031916815260200191505b50838103825287818151815260200191508051906020019080838360005b838110156118ee5780820151818401526020810190506118d3565b50505050905090810190601f16801561191b5780820380516001836020036101000a031916815260200191505b5097505050505050505060405180910390a1505050505050565b6000600460019054906101000a900460ff16151561195657600090506119ab565b42600754111561198857600460029054906101000a900460ff16151561197f57600190506119ab565b600290506119ab565b600460029054906101000a900460ff16156119a657600390506119ab565b600490505b90565b60608060008060008060008060096002015414151515611a36576040517f08c379a00000000000000000000000000000000000000000000000000000000081526004018080602001828103825260178152602001807f4e6f207265717565737420697320617661696c61626c6500000000000000000081525060200191505060405180910390fd5b60096000016009600101600960020154600960030154600960040154600960050154600960060160009054906101000a900460ff16868054600181600116156101000203166002900480601f016020809104026020016040519081016040528092919081815260200182805460018160011615610100020316600290048015611b005780601f10611ad557610100808354040283529160200191611b00565b820191906000526020600020905b815481529060010190602001808311611ae357829003601f168201915b50505050509650858054600181600116156101000203166002900480601f016020809104026020016040519081016040528092919081815260200182805460018160011615610100020316600290048015611b9c5780601f10611b7157610100808354040283529160200191611b9c565b820191906000526020600020905b815481529060010190602001808311611b7f57829003601f168201915b50505050509550965096509650965096509650965090919293949596565b6000809054906101000a900473ffffffffffffffffffffffffffffffffffffffff1681565b6000601280549050905090565b6000809054906101000a900473ffffffffffffffffffffffffffffffffffffffff1673ffffffffffffffffffffffffffffffffffffffff163373ffffffffffffffffffffffffffffffffffffffff16141515611c4757600080fd5b6001600460016101000a81548160ff021916908315150217905550565b600460029054906101000a900460ff16151515611ce9576040517f08c379a000000000000000000000000000000000000000000000000000000000815260040180806020018281038252601c8152602001807f5468652066756e64696e6720676f616c2077617320726561636865640000000081525060200191505060405180910390fd5b60075442111515611d88576040517f08c379a00000000000000000000000000000000000000000000000000000000081526004018080602001828103825260238152602001807f5468652066756e64696e6720706572696f6465206973206e6f74206f7665722081526020017f6a6574000000000000000000000000000000000000000000000000000000000081525060400191505060405180910390fd5b60008090505b601280549050811015611ed8576000600160136000601285815481101515611db257fe5b9060005260206000200160009054906101000a900473ffffffffffffffffffffffffffffffffffffffff1673ffffffffffffffffffffffffffffffffffffffff1673ffffffffffffffffffffffffffffffffffffffff168152602001908152602001600020600101540390506000601283815481101515611e2f57fe5b9060005260206000200160009054906101000a900473ffffffffffffffffffffffffffffffffffffffff1690506000601183815481101515611e6d57fe5b90600052602060002090600502016002015490508173ffffffffffffffffffffffffffffffffffffffff166108fc829081150290604051600060405180830381858888f19350505050158015611ec7573d6000803e3d6000fd5b505050508080600101915050611d8e565b50565b6000809054906101000a900473ffffffffffffffffffffffffffffffffffffffff1673ffffffffffffffffffffffffffffffffffffffff163373ffffffffffffffffffffffffffffffffffffffff16141515611f3657600080fd5b4282111515611fad576040517f08c379a000000000000000000000000000000000000000000000000000000000815260040180806020018281038252601d8152602001807f54686520676976656e206461746520697320696e20746865207061737400000081525060200191505060405180910390fd5b3073ffffffffffffffffffffffffffffffffffffffff163160055410151561203d576040517f08c379a00000000000000000000000000000000000000000000000000000000081526004018080602001828103825260208152602001807f46756e64696e6720476f616c20776173206e6f7420726561636865642079657481525060200191505060405180910390fd5b426008541115156120b6576040517f08c379a00000000000000000000000000000000000000000000000000000000081526004018080602001828103825260118152602001807f50726f6a6563742068617320656e64656400000000000000000000000000000081525060200191505060405180910390fd5b600460009054906101000a900460ff16156121485742600960020154101515612147576040517f08c379a000000000000000000000000000000000000000000000000000000000815260040180806020018281038252601f8152602001807f43757272656e742052657175657374206973207374696c6c2076616c6964650081525060200191505060405180910390fd5b5b6001600460006101000a81548160ff02191690831515021790555060e060405190810160405280858152602001848152602001838152602001828152602001600081526020016000815260200160001515815250600960008201518160000190805190602001906121ba929190612b56565b5060208201518160010190805190602001906121d7929190612b56565b5060408201518160020155606082015181600301556080820151816004015560a0820151816005015560c08201518160060160006101000a81548160ff02191690831515021790555090505060008090505b6012805490508110156122e05760026013600060128481548110151561224b57fe5b9060005260206000200160009054906101000a900473ffffffffffffffffffffffffffffffffffffffff1673ffffffffffffffffffffffffffffffffffffffff1673ffffffffffffffffffffffffffffffffffffffff16815260200190815260200160002060020160006101000a81548160ff021916908360028111156122ce57fe5b02179055508080600101915050612229565b507fb787de1a884559e5259caecc7cd2af3be9a1496a38b192ded8b485ce55f8eff784848484604051808060200180602001858152602001848152602001838103835287818151815260200191508051906020019080838360005b8381101561235657808201518184015260208101905061233b565b50505050905090810190601f1680156123835780820380516001836020036101000a031916815260200191505b50838103825286818151815260200191508051906020019080838360005b838110156123bc5780820151818401526020810190506123a1565b50505050905090810190601f1680156123e95780820380516001836020036101000a031916815260200191505b50965050505050505060405180910390a150505050565b606080600080600060118054905086101515612484576040517f08c379a000000000000000000000000000000000000000000000000000000000815260040180806020018281038252601a8152602001807f54686520696e646578206973206f7574206f6620626f756e647300000000000081525060200191505060405180910390fd5b60118681548110151561249357fe5b90600052602060002090600502016000016011878154811015156124b357fe5b90600052602060002090600502016001016011888154811015156124d357fe5b9060005260206000209060050201600201546011898154811015156124f457fe5b90600052602060002090600502016003015460118a81548110151561251557fe5b906000526020600020906005020160040154848054600181600116156101000203166002900480601f0160208091040260200160405190810160405280929190818152602001828054600181600116156101000203166002900480156125bc5780601f10612591576101008083540402835291602001916125bc565b820191906000526020600020905b81548152906001019060200180831161259f57829003601f168201915b50505050509450838054600181600116156101000203166002900480601f0160208091040260200160405190810160405280929190818152602001828054600181600116156101000203166002900480156126585780601f1061262d57610100808354040283529160200191612658565b820191906000526020600020905b81548152906001019060200180831161263b57829003601f168201915b505050505093509450945094509450945091939590929450565b6000600960020154141515156126f0576040517f08c379a00000000000000000000000000000000000000000000000000000000081526004018080602001828103825260168152602001807f4e6f2072657175657374206973206176616961626c650000000000000000000081525060200191505060405180910390fd5b6000601360003373ffffffffffffffffffffffffffffffffffffffff1673ffffffffffffffffffffffffffffffffffffffff16815260200190815260200160002060030154141515156127ab576040517f08c379a000000000000000000000000000000000000000000000000000000000815260040180806020018281038252601e8152602001807f53656e6465722061646472657373206973206e6f7420696e766573746f72000081525060200191505060405180910390fd5b6002808111156127b757fe5b601360003373ffffffffffffffffffffffffffffffffffffffff1673ffffffffffffffffffffffffffffffffffffffff16815260200190815260200160002060020160009054906101000a900460ff16600281111561281257fe5b141515612887576040517f08c379a000000000000000000000000000000000000000000000000000000000815260040180806020018281038252601a8152602001807f496e766573746f722068617320616c726561647920766f74656400000000000081525060200191505060405180910390fd5b801561290b576000601360003373ffffffffffffffffffffffffffffffffffffffff1673ffffffffffffffffffffffffffffffffffffffff16815260200190815260200160002060020160006101000a81548160ff021916908360028111156128ec57fe5b0217905550600960040160008154809291906001019190505550612985565b6001601360003373ffffffffffffffffffffffffffffffffffffffff1673ffffffffffffffffffffffffffffffffffffffff16815260200190815260200160002060020160006101000a81548160ff0219169083600281111561296a57fe5b02179055506009600501600081548092919060010191905055505b7f068bc8e6089d752cc958591ecf6c3ed82b329f9fbe2a425d515aeb73ec0ad95e600960040154600960050154604051808381526020018281526020019250505060405180910390a150565b6000809054906101000a900473ffffffffffffffffffffffffffffffffffffffff1673ffffffffffffffffffffffffffffffffffffffff163373ffffffffffffffffffffffffffffffffffffffff16141515612a2c57600080fd5b600073ffffffffffffffffffffffffffffffffffffffff168173ffffffffffffffffffffffffffffffffffffffff1614151515612a6857600080fd5b8073ffffffffffffffffffffffffffffffffffffffff166000809054906101000a900473ffffffffffffffffffffffffffffffffffffffff1673ffffffffffffffffffffffffffffffffffffffff167f8be0079c531659141344cd1fd0a4f28419497f9722a3daafe3b4186f6b6457e060405160405180910390a3806000806101000a81548173ffffffffffffffffffffffffffffffffffffffff021916908373ffffffffffffffffffffffffffffffffffffffff16021790555050565b60a06040519081016040528060608152602001606081526020016000815260200160008152602001600081525090565b828054600181600116156101000203166002900490600052602060002090601f016020900481019282601f10612b9757805160ff1916838001178555612bc5565b82800160010185558215612bc5579182015b82811115612bc4578251825591602001919060010190612ba9565b5b509050612bd29190612bd6565b5090565b612bf891905b80821115612bf4576000816000905550600101612bdc565b5090565b9056fea165627a7a723058207299b8a377cf26ffd6ba54a4839722bf2cf0d1c493bc1b71a06ae5a4ec1bd4a80029a165627a7a723058202ec3bc31bfdc66994123aa37ad148ec11afa17f982f9dbccf2697b66e7ae70260029",
  "source": "pragma solidity ^0.5;\n\nimport \"./ProjectContract.sol\";\n\n/**\n * @title ProjectHubContract\n * @author Nils Kirchhof\n * @notice The ProjectHubContracts acts as an hub for all other ProjectContracts that are concluded\n * It saves the addresses of these contracts, as well as the creators and investors that have payed\n * Ethereum to be part of the project\n */\n\ncontract ProjectHubContract{\n\n    Project[] projects;\n    mapping(address => Project[]) projectsCreatedByFounder;\n    mapping(address => Project[]) projectsBackedByInvestor;\n\n\n    struct Project{\n        address owner;\n        address payable projectAdress;\n        string projectName;\n        string projectDescription;\n        uint goal;\n        uint fundingCloseDate;\n        uint projectClosingDate;\n    }\n\n    event CreatedProject(\n        address owner,\n        address payable projectAdress,\n        string projectName,\n        string projectDescription,\n        uint goal,\n        uint fundingCloseDate,\n        uint projectClosingDate\n    );\n\n\n    /**\n    * @notice This function add a new projectContract to the ProjectHubContract. The caller address becomes\n    * automaticly the owner of the new ProjectContract. The new ProjectContract is then added to the list\n    * of ProjectContracts inside the ProjectHubContract.\n    * @param projectName The name of the new ProjectContract\n    * @param projectDescription The description of the new ProjectContract\n    * @param fundingGoal The goal for the funding campain in Wei\n    * @param fundingCloseDate The date until the goal needs to be reached\n    * @return Returns true when the new ProjectContract was successfully created\n    */\n    function addNewProject(string memory projectName, string memory projectDescription, uint fundingGoal,\n                            uint fundingCloseDate, uint projectClosingDate) public\n    {\n        require(fundingCloseDate > block.timestamp, \"The given date is in the past\");\n        \n        ProjectContract projectContract = new ProjectContract(msg.sender, projectName, projectDescription,\n                                                                fundingGoal, fundingCloseDate, projectClosingDate, this);\n        Project memory project = Project(msg.sender, address(projectContract), projectName, projectDescription, fundingGoal,\n                                            fundingCloseDate, projectClosingDate);\n        projects.push(project);\n        projectsCreatedByFounder[msg.sender].push(project);\n        emit CreatedProject(\n            msg.sender,\n            address(projectContract),\n            projectName,\n            projectDescription,\n            fundingGoal,\n            fundingCloseDate,\n            projectClosingDate\n        );\n    }\n\n    /**\n    * @notice This function returns the number of ProjectsContracts inside the Hub.\n    * @return Number of ProjectContracts\n    */\n    function getProjectCount() public view returns (uint)\n    {\n        return projects.length;\n    }\n\n    /**\n    * @notice This function returns a specific ProjectContract, given an index. It is used in\n    * conjunction with getProjectCount() to retrive all avaiable ProjectContracs. It throws\n    * exception if the index if larger then the list size.\n    * @param projectIndex Index of the ProjectContract\n    * @return Address of the ProjectContract owner\n    * @return Address of the ProjectContract\n    * @return Name of ProjectContract\n    * @return Description of ProjectContract\n    * @return Funding goal\n    * @return Funding closeing Date\n    */\n    function getProjects(uint projectIndex) public view returns (address owner,\n                                                                address payable projectAdress,\n                                                                string memory projectName,\n                                                                string memory projectDescription,\n                                                                uint goal,\n                                                                uint fundigCloseDate,\n                                                                uint projectClosingDate)\n    {\n        require(projectIndex < projects.length, \"Index is out of bounds\");\n\n        return (projects[projectIndex].owner,\n                projects[projectIndex].projectAdress,\n                projects[projectIndex].projectName,\n                projects[projectIndex].projectDescription,\n                projects[projectIndex].goal,\n                projects[projectIndex].fundingCloseDate,\n                projects[projectIndex].projectClosingDate);\n    }\n\n    /**\n    * @notice This function return the number of ProjectContracts the caller owns.\n    * @return Number of ProjectContracts owned by caller\n    */\n    function getProjectCountForFounder() public view returns (uint)\n    {\n        return projectsCreatedByFounder[msg.sender].length;\n    }\n\n    /**\n    * @notice This function returns a specific ProjectContract that is owner by caller,\n    * given an index. It is used in conjunction with getProjectCountForFounder() to retrive\n    * all avaiable ProjectContracs owned by caller. It throws\n    * exception if the index if larger then the list size.\n    * @param projectIndex Index of the ProjectContract\n    * @return Address of the ProjectContract owner\n    * @return Address of the ProjectContract\n    * @return Name of ProjectContract\n    * @return Description of ProjectContract\n    * @return Funding goal\n    * @return Funding closeing Date\n    */\n    function getProjectByFounderForIndex(uint projectIndex) public view returns (address, address, string memory,\n                                                                                    string memory, uint, uint, uint)\n    {\n        require(projectIndex < projectsCreatedByFounder[msg.sender].length, \"Index is out of bounds\");\n\n        return (projectsCreatedByFounder[msg.sender][projectIndex].owner,\n                projectsCreatedByFounder[msg.sender][projectIndex].projectAdress,\n                projectsCreatedByFounder[msg.sender][projectIndex].projectName,\n                projectsCreatedByFounder[msg.sender][projectIndex].projectDescription,\n                projectsCreatedByFounder[msg.sender][projectIndex].goal,\n                projectsCreatedByFounder[msg.sender][projectIndex].fundingCloseDate,\n                projectsCreatedByFounder[msg.sender][projectIndex].projectClosingDate);\n    }\n\n    /**\n    * @notice This function return the number of ProjectContracts the caller has invested in.\n    * @return Number of ProjectContracts invested in by caller\n    */\n    function getProjectCountForInvestor() public view returns (uint)\n    {\n        return projectsBackedByInvestor[msg.sender].length;\n    }\n\n    /**\n    * @notice This function returns a specific ProjectContract that is invested in by caller,\n    * given an index. It is used in conjunction with getProjectCountForInvestor() to retrive\n    * all avaiable ProjectContracs invested in by caller. It throws\n    * exception if the index if larger then the list size.\n    * @param projectIndex Index of the ProjectContract\n    * @return Address of the ProjectContract owner\n    * @return Address of the ProjectContract\n    * @return Name of ProjectContract\n    * @return Description of ProjectContract\n    * @return Funding goal\n    * @return Funding closeing Date\n    */\n    function getProjectByInvestorForIndex(uint projectIndex) public view returns (address, address, string memory,\n                                                                                    string memory, uint, uint, uint)\n    {\n        require(projectIndex < projectsBackedByInvestor[msg.sender].length, \"Index is out of bounds\");\n\n        return (projectsBackedByInvestor[msg.sender][projectIndex].owner,\n                projectsBackedByInvestor[msg.sender][projectIndex].projectAdress,\n                projectsBackedByInvestor[msg.sender][projectIndex].projectName,\n                projectsBackedByInvestor[msg.sender][projectIndex].projectDescription,\n                projectsBackedByInvestor[msg.sender][projectIndex].goal,\n                projectsBackedByInvestor[msg.sender][projectIndex].fundingCloseDate,\n                projectsBackedByInvestor[msg.sender][projectIndex].projectClosingDate);\n    }\n\n    /**\n    * @notice This function is only used internally by the ProjectContract to inform the\n    * ProjectHubContract that a new investor has been added to a ProjectContract\n    * @param investor The address of the new investor\n    * @param _projectAddress The address of the contract the investor has invested in\n    * @param _owner The address of the owner of the ProjectContract the new investor has invested in\n    * @param _projectName The Name of the ProjectContract the new investor has invested in\n    * @param _projectDescription The Description of the ProjectContract the new investor has invested in\n    * @param _goal The goal in Wei for the ProjectContract\n    * @param _fundingCloseDate The date until the funding closes\n    */\n    function addProjectToInvestor(address investor, address payable _projectAddress, address _owner,\n                    string memory _projectName, string memory _projectDescription, uint _goal, uint _fundingCloseDate, uint _projectClosingDate) public\n    {\n        projectsBackedByInvestor[investor].push(Project(_owner, _projectAddress, _projectName, _projectDescription, _goal, _fundingCloseDate, _projectClosingDate));\n    }\n}\n\n\n\n",
  "sourcePath": "/Users/Nils/Documents/Repos/Blockchain/Contracts/ProjectHubContract/contracts/ProjectHubContract.sol",
  "compiler": {
    "name": "solc",
    "version": "0.5.0+commit.1d4f565a.Emscripten.clang"
  },
  "schemaVersion": "3.0.9",
  "updatedAt": "2019-06-25T08:48:45.420Z",
  "devdoc": {
    "author": "Nils Kirchhof",
    "methods": {
      "addNewProject(string,string,uint256,uint256,uint256)": {
        "params": {
          "fundingCloseDate": "The date until the goal needs to be reached",
          "fundingGoal": "The goal for the funding campain in Wei",
          "projectDescription": "The description of the new ProjectContract",
          "projectName": "The name of the new ProjectContract"
        },
        "return": "Returns true when the new ProjectContract was successfully created"
      },
      "addProjectToInvestor(address,address,address,string,string,uint256,uint256,uint256)": {
        "params": {
          "_fundingCloseDate": "The date until the funding closes",
          "_goal": "The goal in Wei for the ProjectContract",
          "_owner": "The address of the owner of the ProjectContract the new investor has invested in",
          "_projectAddress": "The address of the contract the investor has invested in",
          "_projectDescription": "The Description of the ProjectContract the new investor has invested in",
          "_projectName": "The Name of the ProjectContract the new investor has invested in",
          "investor": "The address of the new investor"
        }
      },
      "getProjectByFounderForIndex(uint256)": {
        "params": {
          "projectIndex": "Index of the ProjectContract"
        },
        "return": "Address of the ProjectContract ownerAddress of the ProjectContractName of ProjectContractDescription of ProjectContractFunding goalFunding closeing Date"
      },
      "getProjectByInvestorForIndex(uint256)": {
        "params": {
          "projectIndex": "Index of the ProjectContract"
        },
        "return": "Address of the ProjectContract ownerAddress of the ProjectContractName of ProjectContractDescription of ProjectContractFunding goalFunding closeing Date"
      },
      "getProjectCount()": {
        "return": "Number of ProjectContracts"
      },
      "getProjectCountForFounder()": {
        "return": "Number of ProjectContracts owned by caller"
      },
      "getProjectCountForInvestor()": {
        "return": "Number of ProjectContracts invested in by caller"
      },
      "getProjects(uint256)": {
        "params": {
          "projectIndex": "Index of the ProjectContract"
        },
        "return": "Address of the ProjectContract ownerAddress of the ProjectContractName of ProjectContractDescription of ProjectContractFunding goalFunding closeing Date"
      }
    },
    "title": "ProjectHubContract"
  },
  "userdoc": {
    "methods": {
      "addNewProject(string,string,uint256,uint256,uint256)": {
        "notice": "This function add a new projectContract to the ProjectHubContract. The caller address becomes automaticly the owner of the new ProjectContract. The new ProjectContract is then added to the list of ProjectContracts inside the ProjectHubContract."
      },
      "addProjectToInvestor(address,address,address,string,string,uint256,uint256,uint256)": {
        "notice": "This function is only used internally by the ProjectContract to inform the ProjectHubContract that a new investor has been added to a ProjectContract"
      },
      "getProjectByFounderForIndex(uint256)": {
        "notice": "This function returns a specific ProjectContract that is owner by caller, given an index. It is used in conjunction with getProjectCountForFounder() to retrive all avaiable ProjectContracs owned by caller. It throws exception if the index if larger then the list size."
      },
      "getProjectByInvestorForIndex(uint256)": {
        "notice": "This function returns a specific ProjectContract that is invested in by caller, given an index. It is used in conjunction with getProjectCountForInvestor() to retrive all avaiable ProjectContracs invested in by caller. It throws exception if the index if larger then the list size."
      },
      "getProjectCount()": {
        "notice": "This function returns the number of ProjectsContracts inside the Hub."
      },
      "getProjectCountForFounder()": {
        "notice": "This function return the number of ProjectContracts the caller owns."
      },
      "getProjectCountForInvestor()": {
        "notice": "This function return the number of ProjectContracts the caller has invested in."
      },
      "getProjects(uint256)": {
        "notice": "This function returns a specific ProjectContract, given an index. It is used in conjunction with getProjectCount() to retrive all avaiable ProjectContracs. It throws exception if the index if larger then the list size."
      }
    },
    "notice": "The ProjectHubContracts acts as an hub for all other ProjectContracts that are concluded It saves the addresses of these contracts, as well as the creators and investors that have payed Ethereum to be part of the project"
  }
}